{
  "contractName": "MetadiumIdentityManager",
  "abi": [
    {
      "constant": true,
      "inputs": [],
      "name": "MNS",
      "outputs": [
        {
          "name": "",
          "type": "address"
        }
      ],
      "payable": false,
      "stateMutability": "view",
      "type": "function"
    },
    {
      "constant": true,
      "inputs": [],
      "name": "owner",
      "outputs": [
        {
          "name": "",
          "type": "address"
        }
      ],
      "payable": false,
      "stateMutability": "view",
      "type": "function"
    },
    {
      "constant": true,
      "inputs": [],
      "name": "nameMetaIdentityManager",
      "outputs": [
        {
          "name": "",
          "type": "bytes32"
        }
      ],
      "payable": false,
      "stateMutability": "view",
      "type": "function"
    },
    {
      "constant": true,
      "inputs": [],
      "name": "nameMetaID",
      "outputs": [
        {
          "name": "",
          "type": "bytes32"
        }
      ],
      "payable": false,
      "stateMutability": "view",
      "type": "function"
    },
    {
      "constant": false,
      "inputs": [
        {
          "name": "newOwner",
          "type": "address"
        }
      ],
      "name": "transferOwnership",
      "outputs": [],
      "payable": false,
      "stateMutability": "nonpayable",
      "type": "function"
    },
    {
      "anonymous": false,
      "inputs": [
        {
          "indexed": true,
          "name": "owner",
          "type": "address"
        },
        {
          "indexed": true,
          "name": "metaID",
          "type": "bytes32"
        }
      ],
      "name": "CreateMetaID",
      "type": "event"
    },
    {
      "anonymous": false,
      "inputs": [
        {
          "indexed": true,
          "name": "owner",
          "type": "address"
        },
        {
          "indexed": true,
          "name": "oldMetaID",
          "type": "bytes32"
        },
        {
          "indexed": true,
          "name": "newMetaID",
          "type": "bytes32"
        }
      ],
      "name": "UpdateMetaID",
      "type": "event"
    },
    {
      "anonymous": false,
      "inputs": [
        {
          "indexed": true,
          "name": "owner",
          "type": "address"
        },
        {
          "indexed": true,
          "name": "metaID",
          "type": "bytes32"
        }
      ],
      "name": "DeleteMetaID",
      "type": "event"
    },
    {
      "anonymous": false,
      "inputs": [
        {
          "indexed": true,
          "name": "previousOwner",
          "type": "address"
        },
        {
          "indexed": true,
          "name": "newOwner",
          "type": "address"
        }
      ],
      "name": "OwnershipTransferred",
      "type": "event"
    },
    {
      "constant": false,
      "inputs": [
        {
          "name": "_addr",
          "type": "address"
        }
      ],
      "name": "setMetadiumNameServiceAddress",
      "outputs": [],
      "payable": false,
      "stateMutability": "nonpayable",
      "type": "function"
    },
    {
      "constant": false,
      "inputs": [
        {
          "name": "_metaID",
          "type": "bytes32"
        },
        {
          "name": "_sig",
          "type": "bytes"
        },
        {
          "name": "_metaPackage",
          "type": "bytes"
        }
      ],
      "name": "createMetaID",
      "outputs": [
        {
          "name": "",
          "type": "bool"
        }
      ],
      "payable": false,
      "stateMutability": "nonpayable",
      "type": "function"
    },
    {
      "constant": false,
      "inputs": [
        {
          "name": "_metaID",
          "type": "bytes32"
        },
        {
          "name": "_timestamp",
          "type": "bytes"
        },
        {
          "name": "_sig",
          "type": "bytes"
        }
      ],
      "name": "deleteMetaID",
      "outputs": [
        {
          "name": "",
          "type": "bool"
        }
      ],
      "payable": false,
      "stateMutability": "nonpayable",
      "type": "function"
    },
    {
      "constant": false,
      "inputs": [
        {
          "name": "_oldMetaID",
          "type": "bytes32"
        },
        {
          "name": "_newMetaID",
          "type": "bytes32"
        },
        {
          "name": "_sig",
          "type": "bytes"
        },
        {
          "name": "_metaPackage",
          "type": "bytes"
        }
      ],
      "name": "updateMetaID",
      "outputs": [
        {
          "name": "",
          "type": "bool"
        }
      ],
      "payable": false,
      "stateMutability": "nonpayable",
      "type": "function"
    },
    {
      "constant": true,
      "inputs": [
        {
          "name": "_tokenId",
          "type": "uint256"
        }
      ],
      "name": "ownerOf",
      "outputs": [
        {
          "name": "_owner",
          "type": "address"
        }
      ],
      "payable": false,
      "stateMutability": "view",
      "type": "function"
    },
    {
      "constant": true,
      "inputs": [
        {
          "name": "_tokenId",
          "type": "uint256"
        }
      ],
      "name": "tokenURI",
      "outputs": [
        {
          "name": "",
          "type": "string"
        }
      ],
      "payable": false,
      "stateMutability": "view",
      "type": "function"
    },
    {
      "constant": true,
      "inputs": [
        {
          "name": "_owner",
          "type": "address"
        }
      ],
      "name": "balanceOf",
      "outputs": [
        {
          "name": "_balance",
          "type": "uint256"
        }
      ],
      "payable": false,
      "stateMutability": "view",
      "type": "function"
    },
    {
      "constant": true,
      "inputs": [
        {
          "name": "_owner",
          "type": "address"
        },
        {
          "name": "_index",
          "type": "uint256"
        }
      ],
      "name": "tokenOfOwnerByIndex",
      "outputs": [
        {
          "name": "_tokenId",
          "type": "uint256"
        }
      ],
      "payable": false,
      "stateMutability": "view",
      "type": "function"
    },
    {
      "constant": true,
      "inputs": [
        {
          "name": "hash",
          "type": "bytes32"
        },
        {
          "name": "sig",
          "type": "bytes"
        }
      ],
      "name": "ecrecovery",
      "outputs": [
        {
          "name": "",
          "type": "address"
        }
      ],
      "payable": false,
      "stateMutability": "view",
      "type": "function"
    },
    {
      "constant": true,
      "inputs": [
        {
          "name": "message",
          "type": "bytes32"
        },
        {
          "name": "sig",
          "type": "bytes"
        },
        {
          "name": "signer",
          "type": "address"
        }
      ],
      "name": "ecverify",
      "outputs": [
        {
          "name": "",
          "type": "bool"
        }
      ],
      "payable": false,
      "stateMutability": "view",
      "type": "function"
    },
    {
      "constant": true,
      "inputs": [
        {
          "name": "message",
          "type": "bytes32"
        },
        {
          "name": "timestamp",
          "type": "bytes"
        }
      ],
      "name": "concatMetaIDTimestamp",
      "outputs": [
        {
          "name": "",
          "type": "bytes"
        }
      ],
      "payable": false,
      "stateMutability": "view",
      "type": "function"
    },
    {
      "constant": true,
      "inputs": [
        {
          "name": "message",
          "type": "bytes32"
        },
        {
          "name": "timestamp",
          "type": "bytes"
        },
        {
          "name": "sig",
          "type": "bytes"
        },
        {
          "name": "signer",
          "type": "address"
        }
      ],
      "name": "ecverifyWithTimestamp",
      "outputs": [
        {
          "name": "",
          "type": "bool"
        }
      ],
      "payable": false,
      "stateMutability": "view",
      "type": "function"
    },
    {
      "constant": true,
      "inputs": [
        {
          "name": "b",
          "type": "bytes"
        }
      ],
      "name": "getAddressFromMetaPackage",
      "outputs": [
        {
          "name": "",
          "type": "address"
        }
      ],
      "payable": false,
      "stateMutability": "pure",
      "type": "function"
    }
  ],
  "bytecode": "0x6080604052336000806101000a81548173ffffffffffffffffffffffffffffffffffffffff021916908373ffffffffffffffffffffffffffffffffffffffff160217905550612aff806100536000396000f3006080604052600436106100fc576000357c0100000000000000000000000000000000000000000000000000000000900463ffffffff1680630c1f2e0f146101015780632f745c591461015857806339cdde32146101b95780636352211e14610268578063702fecd1146102d557806370a08231146103aa578063711718221461040157806376845d261461044457806377d32e94146105195780638ab38747146105d05780638da5cb5b146106c55780638e9a936a1461071c578063ade266fe1461080c578063c520a1e0146108ef578063c87b56dd14610998578063e9e7b9ea14610a3e578063eaeaa3d914610a71578063f2fde38b14610aa4575b600080fd5b34801561010d57600080fd5b50610116610ae7565b604051808273ffffffffffffffffffffffffffffffffffffffff1673ffffffffffffffffffffffffffffffffffffffff16815260200191505060405180910390f35b34801561016457600080fd5b506101a3600480360381019080803573ffffffffffffffffffffffffffffffffffffffff16906020019092919080359060200190929190505050610b0d565b6040518082815260200191505060405180910390f35b3480156101c557600080fd5b5061024e6004803603810190808035600019169060200190929190803590602001908201803590602001908080601f0160208091040260200160405190810160405280939291908181526020018383808284378201915050505050509192919290803573ffffffffffffffffffffffffffffffffffffffff169060200190929190505050610ced565b604051808215151515815260200191505060405180910390f35b34801561027457600080fd5b5061029360048036038101908080359060200190929190505050610de0565b604051808273ffffffffffffffffffffffffffffffffffffffff1673ffffffffffffffffffffffffffffffffffffffff16815260200191505060405180910390f35b3480156102e157600080fd5b506103906004803603810190808035600019169060200190929190803590602001908201803590602001908080601f0160208091040260200160405190810160405280939291908181526020018383808284378201915050505050509192919290803590602001908201803590602001908080601f0160208091040260200160405190810160405280939291908181526020018383808284378201915050505050509192919290505050610f8b565b604051808215151515815260200191505060405180910390f35b3480156103b657600080fd5b506103eb600480360381019080803573ffffffffffffffffffffffffffffffffffffffff169060200190929190505050611443565b6040518082815260200191505060405180910390f35b34801561040d57600080fd5b50610442600480360381019080803573ffffffffffffffffffffffffffffffffffffffff16906020019092919050505061161a565b005b34801561045057600080fd5b506104ff6004803603810190808035600019169060200190929190803590602001908201803590602001908080601f0160208091040260200160405190810160405280939291908181526020018383808284378201915050505050509192919290803590602001908201803590602001908080601f01602080910402602001604051908101604052809392919081815260200183838082843782019150505050505091929192905050506116b9565b604051808215151515815260200191505060405180910390f35b34801561052557600080fd5b5061058e6004803603810190808035600019169060200190929190803590602001908201803590602001908080601f0160208091040260200160405190810160405280939291908181526020018383808284378201915050505050509192919290505050611afe565b604051808273ffffffffffffffffffffffffffffffffffffffff1673ffffffffffffffffffffffffffffffffffffffff16815260200191505060405180910390f35b3480156105dc57600080fd5b506106ab6004803603810190808035600019169060200190929190803590602001908201803590602001908080601f0160208091040260200160405190810160405280939291908181526020018383808284378201915050505050509192919290803590602001908201803590602001908080601f0160208091040260200160405190810160405280939291908181526020018383808284378201915050505050509192919290803573ffffffffffffffffffffffffffffffffffffffff169060200190929190505050611bf6565b604051808215151515815260200191505060405180910390f35b3480156106d157600080fd5b506106da611eba565b604051808273ffffffffffffffffffffffffffffffffffffffff1673ffffffffffffffffffffffffffffffffffffffff16815260200191505060405180910390f35b34801561072857600080fd5b506107916004803603810190808035600019169060200190929190803590602001908201803590602001908080601f0160208091040260200160405190810160405280939291908181526020018383808284378201915050505050509192919290505050611edf565b6040518080602001828103825283818151815260200191508051906020019080838360005b838110156107d15780820151818401526020810190506107b6565b50505050905090810190601f1680156107fe5780820380516001836020036101000a031916815260200191505b509250505060405180910390f35b34801561081857600080fd5b506108d560048036038101908080356000191690602001909291908035600019169060200190929190803590602001908201803590602001908080601f0160208091040260200160405190810160405280939291908181526020018383808284378201915050505050509192919290803590602001908201803590602001908080601f016020809104026020016040519081016040528093929190818152602001838380828437820191505050505050919291929050505061206c565b604051808215151515815260200191505060405180910390f35b3480156108fb57600080fd5b50610956600480360381019080803590602001908201803590602001908080601f0160208091040260200160405190810160405280939291908181526020018383808284378201915050505050509192919290505050612625565b604051808273ffffffffffffffffffffffffffffffffffffffff1673ffffffffffffffffffffffffffffffffffffffff16815260200191505060405180910390f35b3480156109a457600080fd5b506109c360048036038101908080359060200190929190505050612734565b6040518080602001828103825283818151815260200191508051906020019080838360005b83811015610a035780820151818401526020810190506109e8565b50505050905090810190601f168015610a305780820380516001836020036101000a031916815260200191505b509250505060405180910390f35b348015610a4a57600080fd5b50610a53612936565b60405180826000191660001916815260200191505060405180910390f35b348015610a7d57600080fd5b50610a8661295a565b60405180826000191660001916815260200191505060405180910390f35b348015610ab057600080fd5b50610ae5600480360381019080803573ffffffffffffffffffffffffffffffffffffffff16906020019092919050505061297e565b005b600160009054906101000a900473ffffffffffffffffffffffffffffffffffffffff1681565b600080600160009054906101000a900473ffffffffffffffffffffffffffffffffffffffff1673ffffffffffffffffffffffffffffffffffffffff16630d2020dd7f4d657461494400000000000000000000000000000000000000000000000000006040518263ffffffff167c0100000000000000000000000000000000000000000000000000000000028152600401808260001916600019168152602001915050602060405180830381600087803b158015610bc957600080fd5b505af1158015610bdd573d6000803e3d6000fd5b505050506040513d6020811015610bf357600080fd5b810190808051906020019092919050505090508073ffffffffffffffffffffffffffffffffffffffff16632f745c5985856040518363ffffffff167c0100000000000000000000000000000000000000000000000000000000028152600401808373ffffffffffffffffffffffffffffffffffffffff1673ffffffffffffffffffffffffffffffffffffffff16815260200182815260200192505050602060405180830381600087803b158015610ca957600080fd5b505af1158015610cbd573d6000803e3d6000fd5b505050506040513d6020811015610cd357600080fd5b810190808051906020019092919050505091505092915050565b600060606040805190810160405280601c81526020017f19457468657265756d205369676e6564204d6573736167653a0a333200000000815250905080856040518083805190602001908083835b602083101515610d605780518252602082019150602081019050602083039250610d3b565b6001836020036101000a03801982511681845116808217855250505050505090500182600019166000191681526020019250505060405180910390209450610da88585611afe565b73ffffffffffffffffffffffffffffffffffffffff168373ffffffffffffffffffffffffffffffffffffffff16149150509392505050565b600080600160009054906101000a900473ffffffffffffffffffffffffffffffffffffffff1673ffffffffffffffffffffffffffffffffffffffff16630d2020dd7f4d657461494400000000000000000000000000000000000000000000000000006040518263ffffffff167c0100000000000000000000000000000000000000000000000000000000028152600401808260001916600019168152602001915050602060405180830381600087803b158015610e9c57600080fd5b505af1158015610eb0573d6000803e3d6000fd5b505050506040513d6020811015610ec657600080fd5b810190808051906020019092919050505090508073ffffffffffffffffffffffffffffffffffffffff16636352211e846040518263ffffffff167c010000000000000000000000000000000000000000000000000000000002815260040180828152602001915050602060405180830381600087803b158015610f4857600080fd5b505af1158015610f5c573d6000803e3d6000fd5b505050506040513d6020811015610f7257600080fd5b8101908080519060200190929190505050915050919050565b6000806000600160009054906101000a900473ffffffffffffffffffffffffffffffffffffffff1673ffffffffffffffffffffffffffffffffffffffff166360d6c7cf7f4d6574616469756d4964656e746974794d616e61676572000000000000000000336040518363ffffffff167c01000000000000000000000000000000000000000000000000000000000281526004018083600019166000191681526020018273ffffffffffffffffffffffffffffffffffffffff1673ffffffffffffffffffffffffffffffffffffffff16815260200192505050602060405180830381600087803b15801561107d57600080fd5b505af1158015611091573d6000803e3d6000fd5b505050506040513d60208110156110a757600080fd5b810190808051906020019092919050505015156110c357600080fd5b6110cc84612625565b91506110d9868684610ced565b15156110e457600080fd5b600160009054906101000a900473ffffffffffffffffffffffffffffffffffffffff1673ffffffffffffffffffffffffffffffffffffffff16630d2020dd7f4d657461494400000000000000000000000000000000000000000000000000006040518263ffffffff167c0100000000000000000000000000000000000000000000000000000000028152600401808260001916600019168152602001915050602060405180830381600087803b15801561119d57600080fd5b505af11580156111b1573d6000803e3d6000fd5b505050506040513d60208110156111c757600080fd5b810190808051906020019092919050505090508073ffffffffffffffffffffffffffffffffffffffff16634f558e7987600190046040518263ffffffff167c010000000000000000000000000000000000000000000000000000000002815260040180828152602001915050602060405180830381600087803b15801561124d57600080fd5b505af1158015611261573d6000803e3d6000fd5b505050506040513d602081101561127757600080fd5b810190808051906020019092919050505015151561129457600080fd5b8073ffffffffffffffffffffffffffffffffffffffff1663d3fc9864838860019004876040518463ffffffff167c0100000000000000000000000000000000000000000000000000000000028152600401808473ffffffffffffffffffffffffffffffffffffffff1673ffffffffffffffffffffffffffffffffffffffff16815260200183815260200180602001828103825283818151815260200191508051906020019080838360005b8381101561135a57808201518184015260208101905061133f565b50505050905090810190601f1680156113875780820380516001836020036101000a031916815260200191505b50945050505050602060405180830381600087803b1580156113a857600080fd5b505af11580156113bc573d6000803e3d6000fd5b505050506040513d60208110156113d257600080fd5b810190808051906020019092919050505015156113ee57600080fd5b85600019168273ffffffffffffffffffffffffffffffffffffffff167f0afbed7f307c1b94f44fd781ff78fa8f85831c62848a1c53db8d28f575cf1aa160405160405180910390a36001925050509392505050565b600080600160009054906101000a900473ffffffffffffffffffffffffffffffffffffffff1673ffffffffffffffffffffffffffffffffffffffff16630d2020dd7f4d657461494400000000000000000000000000000000000000000000000000006040518263ffffffff167c0100000000000000000000000000000000000000000000000000000000028152600401808260001916600019168152602001915050602060405180830381600087803b1580156114ff57600080fd5b505af1158015611513573d6000803e3d6000fd5b505050506040513d602081101561152957600080fd5b810190808051906020019092919050505090508073ffffffffffffffffffffffffffffffffffffffff166370a08231846040518263ffffffff167c0100000000000000000000000000000000000000000000000000000000028152600401808273ffffffffffffffffffffffffffffffffffffffff1673ffffffffffffffffffffffffffffffffffffffff168152602001915050602060405180830381600087803b1580156115d757600080fd5b505af11580156115eb573d6000803e3d6000fd5b505050506040513d602081101561160157600080fd5b8101908080519060200190929190505050915050919050565b6000809054906101000a900473ffffffffffffffffffffffffffffffffffffffff1673ffffffffffffffffffffffffffffffffffffffff163373ffffffffffffffffffffffffffffffffffffffff1614151561167557600080fd5b80600160006101000a81548173ffffffffffffffffffffffffffffffffffffffff021916908373ffffffffffffffffffffffffffffffffffffffff16021790555050565b6000806000600160009054906101000a900473ffffffffffffffffffffffffffffffffffffffff1673ffffffffffffffffffffffffffffffffffffffff166360d6c7cf7f4d6574616469756d4964656e746974794d616e61676572000000000000000000336040518363ffffffff167c01000000000000000000000000000000000000000000000000000000000281526004018083600019166000191681526020018273ffffffffffffffffffffffffffffffffffffffff1673ffffffffffffffffffffffffffffffffffffffff16815260200192505050602060405180830381600087803b1580156117ab57600080fd5b505af11580156117bf573d6000803e3d6000fd5b505050506040513d60208110156117d557600080fd5b810190808051906020019092919050505015156117f157600080fd5b6117fe8660019004610de0565b915061180c86868685611bf6565b151561181757600080fd5b600160009054906101000a900473ffffffffffffffffffffffffffffffffffffffff1673ffffffffffffffffffffffffffffffffffffffff16630d2020dd7f4d657461494400000000000000000000000000000000000000000000000000006040518263ffffffff167c0100000000000000000000000000000000000000000000000000000000028152600401808260001916600019168152602001915050602060405180830381600087803b1580156118d057600080fd5b505af11580156118e4573d6000803e3d6000fd5b505050506040513d60208110156118fa57600080fd5b810190808051906020019092919050505090508173ffffffffffffffffffffffffffffffffffffffff168173ffffffffffffffffffffffffffffffffffffffff16636352211e88600190046040518263ffffffff167c010000000000000000000000000000000000000000000000000000000002815260040180828152602001915050602060405180830381600087803b15801561199757600080fd5b505af11580156119ab573d6000803e3d6000fd5b505050506040513d60208110156119c157600080fd5b810190808051906020019092919050505073ffffffffffffffffffffffffffffffffffffffff161415156119f457600080fd5b8073ffffffffffffffffffffffffffffffffffffffff166342966c6887600190046040518263ffffffff167c010000000000000000000000000000000000000000000000000000000002815260040180828152602001915050602060405180830381600087803b158015611a6757600080fd5b505af1158015611a7b573d6000803e3d6000fd5b505050506040513d6020811015611a9157600080fd5b81019080805190602001909291905050501515611aad57600080fd5b85600019168273ffffffffffffffffffffffffffffffffffffffff167f4e8bb03e2af31dac5f75505a69e10ce88e9d1239cc1859e1e79a7d360fbf061b60405160405180910390a350509392505050565b60008060008060418551141515611b185760009350611bed565b602085015192506040850151915060ff6041860151169050601b8160ff161015611b4357601b810190505b601b8160ff1614158015611b5b5750601c8160ff1614155b15611b695760009350611bed565b600186828585604051600081526020016040526040518085600019166000191681526020018460ff1660ff1681526020018360001916600019168152602001826000191660001916815260200194505050505060206040516020810390808403906000865af1158015611be0573d6000803e3d6000fd5b5050506020604051035193505b50505092915050565b600060606000606060008751602060ff16016040519080825280601f01601f191660200182016040528015611c3a5781602001602082028038833980820191505090505b509350600092505b602060ff16831015611cca578883602081101515611c5c57fe5b1a7f0100000000000000000000000000000000000000000000000000000000000000028484815181101515611c8d57fe5b9060200101907effffffffffffffffffffffffffffffffffffffffffffffffffffffffffffff1916908160001a9053508280600101935050611c42565b600092505b8751831015611d82578783815181101515611ce657fe5b9060200101517f010000000000000000000000000000000000000000000000000000000000000090047f0100000000000000000000000000000000000000000000000000000000000000028484602060ff1601815181101515611d4557fe5b9060200101907effffffffffffffffffffffffffffffffffffffffffffffffffffffffffffff1916908160001a9053508280600101935050611ccf565b6040805190810160405280601c81526020017f19457468657265756d205369676e6564204d6573736167653a0a333200000000815250915081846040518083805190602001908083835b602083101515611df15780518252602082019150602081019050602083039250611dcc565b6001836020036101000a03801982511681845116808217855250505050505090500182805190602001908083835b602083101515611e445780518252602082019150602081019050602083039250611e1f565b6001836020036101000a0380198251168184511680821785525050505050509050019250505060405180910390209050611e7e8188611afe565b73ffffffffffffffffffffffffffffffffffffffff168673ffffffffffffffffffffffffffffffffffffffff1614945050505050949350505050565b6000809054906101000a900473ffffffffffffffffffffffffffffffffffffffff1681565b606080600060646040519080825280601f01601f191660200182016040528015611f185781602001602082028038833980820191505090505b50915060009050600090505b6002811015611fa9578481602081101515611f3b57fe5b1a7f0100000000000000000000000000000000000000000000000000000000000000028282815181101515611f6c57fe5b9060200101907effffffffffffffffffffffffffffffffffffffffffffffffffffffffffffff1916908160001a9053508080600101915050611f24565b600090505b8351811015612061578381815181101515611fc557fe5b9060200101517f010000000000000000000000000000000000000000000000000000000000000090047f0100000000000000000000000000000000000000000000000000000000000000028282602060ff160181518110151561202457fe5b9060200101907effffffffffffffffffffffffffffffffffffffffffffffffffffffffffffff1916908160001a9053508080600101915050611fae565b819250505092915050565b6000806000600160009054906101000a900473ffffffffffffffffffffffffffffffffffffffff1673ffffffffffffffffffffffffffffffffffffffff166360d6c7cf7f4d6574616469756d4964656e746974794d616e61676572000000000000000000336040518363ffffffff167c01000000000000000000000000000000000000000000000000000000000281526004018083600019166000191681526020018273ffffffffffffffffffffffffffffffffffffffff1673ffffffffffffffffffffffffffffffffffffffff16815260200192505050602060405180830381600087803b15801561215e57600080fd5b505af1158015612172573d6000803e3d6000fd5b505050506040513d602081101561218857600080fd5b810190808051906020019092919050505015156121a457600080fd5b6121ad84612625565b91508173ffffffffffffffffffffffffffffffffffffffff166121d38860019004610de0565b73ffffffffffffffffffffffffffffffffffffffff161415156121f557600080fd5b612200868684610ced565b151561220b57600080fd5b600160009054906101000a900473ffffffffffffffffffffffffffffffffffffffff1673ffffffffffffffffffffffffffffffffffffffff16630d2020dd7f4d657461494400000000000000000000000000000000000000000000000000006040518263ffffffff167c0100000000000000000000000000000000000000000000000000000000028152600401808260001916600019168152602001915050602060405180830381600087803b1580156122c457600080fd5b505af11580156122d8573d6000803e3d6000fd5b505050506040513d60208110156122ee57600080fd5b810190808051906020019092919050505090508073ffffffffffffffffffffffffffffffffffffffff16634f558e7987600190046040518263ffffffff167c010000000000000000000000000000000000000000000000000000000002815260040180828152602001915050602060405180830381600087803b15801561237457600080fd5b505af1158015612388573d6000803e3d6000fd5b505050506040513d602081101561239e57600080fd5b81019080805190602001909291905050501515156123bb57600080fd5b8073ffffffffffffffffffffffffffffffffffffffff166342966c6888600190046040518263ffffffff167c010000000000000000000000000000000000000000000000000000000002815260040180828152602001915050602060405180830381600087803b15801561242e57600080fd5b505af1158015612442573d6000803e3d6000fd5b505050506040513d602081101561245857600080fd5b8101908080519060200190929190505050151561247457600080fd5b8073ffffffffffffffffffffffffffffffffffffffff1663d3fc9864838860019004876040518463ffffffff167c0100000000000000000000000000000000000000000000000000000000028152600401808473ffffffffffffffffffffffffffffffffffffffff1673ffffffffffffffffffffffffffffffffffffffff16815260200183815260200180602001828103825283818151815260200191508051906020019080838360005b8381101561253a57808201518184015260208101905061251f565b50505050905090810190601f1680156125675780820380516001836020036101000a031916815260200191505b50945050505050602060405180830381600087803b15801561258857600080fd5b505af115801561259c573d6000803e3d6000fd5b505050506040513d60208110156125b257600080fd5b810190808051906020019092919050505015156125ce57600080fd5b856000191687600019168373ffffffffffffffffffffffffffffffffffffffff167fde4d89fa4d58496bf0ceb285c9696695ffef28d55d9c47936ef981f124aa2c8c60405160405180910390a45050949350505050565b6000806000806016925082855111151561263e57600080fd5b600190505b6015811015612719576008600182030260ff7f010000000000000000000000000000000000000000000000000000000000000002868381518110151561268557fe5b9060200101517f010000000000000000000000000000000000000000000000000000000000000090047f010000000000000000000000000000000000000000000000000000000000000002167effffffffffffffffffffffffffffffffffffffffffffffffffffffffffffff19166bffffffffffffffffffffffff19169060020a9004821791508080600101915050612643565b816c0100000000000000000000000090049350505050919050565b60606000600160009054906101000a900473ffffffffffffffffffffffffffffffffffffffff1673ffffffffffffffffffffffffffffffffffffffff16630d2020dd7f4d657461494400000000000000000000000000000000000000000000000000006040518263ffffffff167c0100000000000000000000000000000000000000000000000000000000028152600401808260001916600019168152602001915050602060405180830381600087803b1580156127f157600080fd5b505af1158015612805573d6000803e3d6000fd5b505050506040513d602081101561281b57600080fd5b810190808051906020019092919050505090508073ffffffffffffffffffffffffffffffffffffffff1663c87b56dd846040518263ffffffff167c010000000000000000000000000000000000000000000000000000000002815260040180828152602001915050600060405180830381600087803b15801561289d57600080fd5b505af11580156128b1573d6000803e3d6000fd5b505050506040513d6000823e3d601f19601f8201168201806040525060208110156128db57600080fd5b8101908080516401000000008111156128f357600080fd5b8281019050602081018481111561290957600080fd5b815185600182028301116401000000008211171561292657600080fd5b5050929190505050915050919050565b7f4d6574616469756d4964656e746974794d616e6167657200000000000000000081565b7f4d6574614944000000000000000000000000000000000000000000000000000081565b6000809054906101000a900473ffffffffffffffffffffffffffffffffffffffff1673ffffffffffffffffffffffffffffffffffffffff163373ffffffffffffffffffffffffffffffffffffffff161415156129d957600080fd5b600073ffffffffffffffffffffffffffffffffffffffff168173ffffffffffffffffffffffffffffffffffffffff1614151515612a1557600080fd5b8073ffffffffffffffffffffffffffffffffffffffff166000809054906101000a900473ffffffffffffffffffffffffffffffffffffffff1673ffffffffffffffffffffffffffffffffffffffff167f8be0079c531659141344cd1fd0a4f28419497f9722a3daafe3b4186f6b6457e060405160405180910390a3806000806101000a81548173ffffffffffffffffffffffffffffffffffffffff021916908373ffffffffffffffffffffffffffffffffffffffff160217905550505600a165627a7a72305820548ca45c6cd34d5d06c9c3cd3513f02fd38c39096deeb00917c7d181e6a906860029",
  "source": "pragma solidity ^0.4.24;\n\nimport \"./openzeppelin-solidity/contracts/ownership/Ownable.sol\";\nimport \"./MetadiumNameService.sol\";\n// contract MasterContract{\n\n// }\ncontract ERC20Basic {\n  function totalSupply() public view returns (uint256);\n  function balanceOf(address who) public view returns (uint256);\n  function transfer(address to, uint256 value) public returns (bool);\n  event Transfer(address indexed from, address indexed to, uint256 value);\n}\n\ncontract MetaID {\n    function mint(address _to, uint256 _tokenId, string _uri) public returns (bool);\n    function setTokenURI(uint256 _tokenId, string _uri) public;\n    function balanceOf(address _owner) public view returns (uint256 _balance);\n    function burn(uint256 _tokenId) public returns (bool);\n    function exists(uint256 _tokenId) public view returns (bool _exists);\n    function ownerOf(uint256 _tokenId) public view returns (address _owner);\n    function tokenURI(uint256 _tokenId) public view returns (string);\n    function tokenOfOwnerByIndex(address _owner, uint256 _index) public view returns (uint256 _tokenId);\n}\n\ncontract MetadiumIdentityManager is Ownable {\n\n    MetadiumNameService public MNS;\n    bytes32 public constant nameMetaIdentityManager = \"MetadiumIdentityManager\";\n    bytes32 public constant nameMetaID = \"MetaID\";\n    \n    event CreateMetaID(address indexed owner, bytes32 indexed metaID);\n    event UpdateMetaID(address indexed owner, bytes32 indexed oldMetaID, bytes32 indexed newMetaID);\n    event DeleteMetaID(address indexed owner, bytes32 indexed metaID);\n    \n    function setMetadiumNameServiceAddress(address _addr) onlyOwner {\n        MNS = MetadiumNameService(_addr);\n    }\n\n    modifier permissioned() {\n        require(MNS.getPermission(nameMetaIdentityManager, msg.sender));\n        _;\n    }\n\n    /**\n    * @dev Function to create New Meta ID. signature = user_privatekey_sign(_metaID)\n    * @param _metaID metaID of user\n    * @param _sig ECDSA signature\n    * @param _metaPackage = Version(1 byte) . userSenderAddress(20 bytes) . AttestationMask(32 bytes) . Status(32 bytes) \n    * @return A boolean that indicates if the operation was successful.\n    */\n    function createMetaID(bytes32 _metaID, bytes _sig, bytes _metaPackage) permissioned public returns (bool){\n        //permission checked by modifier permissioned\n\n        //get address from metaPackage\n        address _senderFromMetaPackage = getAddressFromMetaPackage(_metaPackage);\n        \n        //verify the signature using ecverify & sender address\n        require(ecverify(_metaID, _sig, _senderFromMetaPackage));\n\n        //get metaID address from Metadium Name Service\n        MetaID metaIDContract = MetaID(MNS.getContractAddress(nameMetaID));\n\n        //check whether same meta ID exists if yes, revert\n        require(!metaIDContract.exists(uint256(_metaID)));\n\n        //if not, mint erc721 token to sender address \n        require(metaIDContract.mint(_senderFromMetaPackage, uint256(_metaID), string(_metaPackage)));\n\n        CreateMetaID(_senderFromMetaPackage, _metaID);\n        return true;\n\n    }\n\n/**\n    * @dev Function to delete Meta ID. signature = user_privatekey_sign(_metaID)\n    * @param _metaID metaID of user\n    * @param _sig ECDSA signature\n    * @return A boolean that indicates if the operation was successful.\n    */\n    function deleteMetaID(bytes32 _metaID, bytes _timestamp, bytes _sig) permissioned public returns (bool){\n        //permission check from modifier permissioned\n\n        //get address from metaPackage\n        address _senderFromMetaID = ownerOf(uint256(_metaID));\n        \n        //verify the signature using ecverify & sender address\n        require(ecverifyWithTimestamp(_metaID, _timestamp, _sig, _senderFromMetaID));\n        \n        //get metaID address from Metadium Name Service\n        MetaID metaIDContract = MetaID(MNS.getContractAddress(nameMetaID));\n\n        //check whether the metaID belongs to the sender. this also checks existence\n        require(metaIDContract.ownerOf(uint256(_metaID)) == _senderFromMetaID);\n\n        //burn metaID\n        require(metaIDContract.burn(uint256(_metaID)));\n\n        DeleteMetaID(_senderFromMetaID, _metaID);\n        \n        \n    }\n\n    /**\n    * @dev Function to update old MetaID to New MetaID. signature = user_privatekey_sign(_newMetaID)\n    * @param _oldMetaID metaID of user\n    * @param _newMetaID metaID of user\n    * @param _sig ECDSA signature\n    * @param _metaPackage = Version(1 byte) . userSenderAddress(20 bytes) . AttestationMask(32 bytes) . Status(32 bytes) \n    * @return A boolean that indicates if the operation was successful.\n    */\n    function updateMetaID(bytes32 _oldMetaID, bytes32 _newMetaID, bytes _sig, bytes _metaPackage) permissioned public returns (bool){\n        //permission check from modifier permissionedOnly(msg.sender)\n\n        //get address from metaPackage\n        address _senderFromMetaPackage = getAddressFromMetaPackage(_metaPackage);\n\n        //check the owner has this metaID\n        require(ownerOf(uint256(_oldMetaID)) == _senderFromMetaPackage);\n\n        //verify the signature using ecverify & sender address\n        require(ecverify(_newMetaID, _sig, _senderFromMetaPackage));\n\n        //get metaID address from Metadium Name Service\n        MetaID metaIDContract = MetaID(MNS.getContractAddress(nameMetaID));\n\n        //check whether same old Meta ID exists\n        //require(metaIDContract.exists(uint256(_oldMetaID))); // double checked\n\n        //check whether same new Meta ID exists\n        require(!metaIDContract.exists(uint256(_newMetaID)));\n      \n        //burn old erc721 token from sender address\n        require(metaIDContract.burn(uint256(_oldMetaID)));\n\n        //mint new erc721 token to sender address \n        require(metaIDContract.mint(_senderFromMetaPackage, uint256(_newMetaID), string(_metaPackage)));\n\n        //approve transfer and burn and mint to permissioned address(e.g. proxy)\n        UpdateMetaID(_senderFromMetaPackage, _oldMetaID, _newMetaID);\n\n    }\n\n    function ownerOf(uint256 _tokenId) public view returns (address _owner){\n        MetaID metaIDContract = MetaID(MNS.getContractAddress(nameMetaID));\n        return metaIDContract.ownerOf(_tokenId);\n    }\n\n    function tokenURI(uint256 _tokenId) public view returns (string){\n        MetaID metaIDContract = MetaID(MNS.getContractAddress(nameMetaID));\n        return metaIDContract.tokenURI(_tokenId);\n    }\n\n    function balanceOf(address _owner) public view returns (uint256 _balance){\n        MetaID metaIDContract = MetaID(MNS.getContractAddress(nameMetaID));\n        return metaIDContract.balanceOf(_owner);\n    }\n\n    function tokenOfOwnerByIndex(address _owner, uint256 _index) public view returns (uint256 _tokenId){\n        MetaID metaIDContract = MetaID(MNS.getContractAddress(nameMetaID));\n        return metaIDContract.tokenOfOwnerByIndex(_owner, _index);\n    }\n\n    function ecrecovery(bytes32 hash, bytes sig) public constant returns (address) {\n        bytes32 r;\n        bytes32 s;\n        uint8 v;\n    \n        if (sig.length != 65) {\n        return 0;\n        }\n\n        assembly {\n            r := mload(add(sig, 32))\n            s := mload(add(sig, 64))\n            v := and(mload(add(sig, 65)), 255)\n        }\n\n        // https://github.com/ethereum/go-ethereum/issues/2053\n        if (v < 27) {\n            v += 27;\n        }\n\n        if (v != 27 && v != 28) {\n            return 0;\n        }\n\n        /* prefix might be needed for geth only\n        * https://github.com/ethereum/go-ethereum/issues/3731\n        */\n        // bytes memory prefix = \"\\x19Ethereum Signed Message:\\n32\";\n        // hash = sha3(prefix, hash);\n\n        return ecrecover(hash, v, r, s);\n    }\n\n    function ecverify(bytes32 message, bytes sig, address signer) public constant returns (bool) {\n        //message = keccak256(message);\n        bytes memory prefix = \"\\x19Ethereum Signed Message:\\n32\";\n        message = keccak256(prefix, message);\n        return signer == ecrecovery(message, sig);\n    }\n\n    function concatMetaIDTimestamp(bytes32 message, bytes timestamp) public constant returns (bytes){\n        bytes memory metaIDAndTimestamp = new bytes(100); //= new bytes(message.length + timestamp.length);\n        uint256 i=0;\n        //return timestamp;\n\n        for(i=0;i<2;i++){\n            metaIDAndTimestamp[i] = message[i];\n        }\n        \n        \n        for(i=0;i<timestamp.length;i++){\n            metaIDAndTimestamp[message.length+i] = timestamp[i];\n        }\n        return metaIDAndTimestamp;\n        \n        \n    }\n    function ecverifyWithTimestamp(bytes32 message, bytes timestamp, bytes sig, address signer) public constant returns (bool) {\n        \n        bytes memory metaIDAndTimestamp = new bytes(message.length + timestamp.length);\n        uint256 i;\n        \n        for(i=0;i<message.length;i++){\n            metaIDAndTimestamp[i] = message[i];\n            \n        }\n        \n        for(i=0;i<timestamp.length;i++){\n            metaIDAndTimestamp[message.length+i] = timestamp[i];\n        }\n\n        bytes memory prefix = \"\\x19Ethereum Signed Message:\\n32\";\n        bytes32 hashedMessage = keccak256(prefix, metaIDAndTimestamp);\n        return signer == ecrecovery(hashedMessage, sig);\n\n    }\n    function getAddressFromMetaPackage(bytes b) public pure returns (address) {\n        //constant 22 should be named.\n        uint minLength = 22;\n        require(b.length > minLength);\n\n        bytes20 out;\n        for (uint i = 1; i < 21; i++) {\n            out |= bytes20(b[i] & 0xFF) >> ((i-1) * 8);    \n        }\n        return address(out);\n    }\n}",
  "sourcePath": "/Users/coinplug/BangGijin/MetadiumBlockchain/contracts/MetadiumIdentityManager.sol",
  "compiler": {
    "name": "solc",
    "version": "0.4.24+commit.e67f0147.Emscripten.clang"
  },
  "schemaVersion": "2.0.1",
  "updatedAt": "2018-07-02T04:52:32.535Z"
}