{
  "contractName": "MetadiumIdentityManager",
  "abi": [
    {
      "constant": true,
      "inputs": [],
      "name": "MNS",
      "outputs": [
        {
          "name": "",
          "type": "address"
        }
      ],
      "payable": false,
      "stateMutability": "view",
      "type": "function"
    },
    {
      "constant": true,
      "inputs": [],
      "name": "owner",
      "outputs": [
        {
          "name": "",
          "type": "address"
        }
      ],
      "payable": false,
      "stateMutability": "view",
      "type": "function"
    },
    {
      "constant": true,
      "inputs": [],
      "name": "nameMetaIdentityManager",
      "outputs": [
        {
          "name": "",
          "type": "bytes32"
        }
      ],
      "payable": false,
      "stateMutability": "view",
      "type": "function"
    },
    {
      "constant": true,
      "inputs": [],
      "name": "nameMetaID",
      "outputs": [
        {
          "name": "",
          "type": "bytes32"
        }
      ],
      "payable": false,
      "stateMutability": "view",
      "type": "function"
    },
    {
      "constant": false,
      "inputs": [
        {
          "name": "newOwner",
          "type": "address"
        }
      ],
      "name": "transferOwnership",
      "outputs": [],
      "payable": false,
      "stateMutability": "nonpayable",
      "type": "function"
    },
    {
      "anonymous": false,
      "inputs": [
        {
          "indexed": true,
          "name": "owner",
          "type": "address"
        },
        {
          "indexed": true,
          "name": "metaID",
          "type": "bytes32"
        }
      ],
      "name": "CreateMetaID",
      "type": "event"
    },
    {
      "anonymous": false,
      "inputs": [
        {
          "indexed": true,
          "name": "owner",
          "type": "address"
        },
        {
          "indexed": true,
          "name": "oldMetaID",
          "type": "bytes32"
        },
        {
          "indexed": true,
          "name": "newMetaID",
          "type": "bytes32"
        }
      ],
      "name": "UpdateMetaID",
      "type": "event"
    },
    {
      "anonymous": false,
      "inputs": [
        {
          "indexed": true,
          "name": "owner",
          "type": "address"
        },
        {
          "indexed": true,
          "name": "metaID",
          "type": "bytes32"
        }
      ],
      "name": "DeleteMetaID",
      "type": "event"
    },
    {
      "anonymous": false,
      "inputs": [
        {
          "indexed": true,
          "name": "previousOwner",
          "type": "address"
        },
        {
          "indexed": true,
          "name": "newOwner",
          "type": "address"
        }
      ],
      "name": "OwnershipTransferred",
      "type": "event"
    },
    {
      "constant": false,
      "inputs": [
        {
          "name": "_addr",
          "type": "address"
        }
      ],
      "name": "setMetadiumNameServiceAddress",
      "outputs": [],
      "payable": false,
      "stateMutability": "nonpayable",
      "type": "function"
    },
    {
      "constant": false,
      "inputs": [
        {
          "name": "_metaID",
          "type": "bytes32"
        },
        {
          "name": "_sig",
          "type": "bytes"
        },
        {
          "name": "_metaPackage",
          "type": "bytes"
        }
      ],
      "name": "createMetaID",
      "outputs": [
        {
          "name": "",
          "type": "bool"
        }
      ],
      "payable": false,
      "stateMutability": "nonpayable",
      "type": "function"
    },
    {
      "constant": false,
      "inputs": [
        {
          "name": "_metaID",
          "type": "bytes32"
        },
        {
          "name": "_sig",
          "type": "bytes"
        },
        {
          "name": "_metaPackage",
          "type": "bytes"
        }
      ],
      "name": "deleteMetaID",
      "outputs": [
        {
          "name": "",
          "type": "bool"
        }
      ],
      "payable": false,
      "stateMutability": "nonpayable",
      "type": "function"
    },
    {
      "constant": false,
      "inputs": [
        {
          "name": "_oldMetaID",
          "type": "bytes32"
        },
        {
          "name": "_newMetaID",
          "type": "bytes32"
        },
        {
          "name": "_sig",
          "type": "bytes"
        },
        {
          "name": "_metaPackage",
          "type": "bytes"
        }
      ],
      "name": "updateMetaID",
      "outputs": [
        {
          "name": "",
          "type": "bool"
        }
      ],
      "payable": false,
      "stateMutability": "nonpayable",
      "type": "function"
    },
    {
      "constant": true,
      "inputs": [
        {
          "name": "_tokenId",
          "type": "uint256"
        }
      ],
      "name": "ownerOf",
      "outputs": [
        {
          "name": "_owner",
          "type": "address"
        }
      ],
      "payable": false,
      "stateMutability": "view",
      "type": "function"
    },
    {
      "constant": true,
      "inputs": [
        {
          "name": "_tokenId",
          "type": "uint256"
        }
      ],
      "name": "tokenURI",
      "outputs": [
        {
          "name": "",
          "type": "string"
        }
      ],
      "payable": false,
      "stateMutability": "view",
      "type": "function"
    },
    {
      "constant": true,
      "inputs": [
        {
          "name": "_owner",
          "type": "address"
        }
      ],
      "name": "balanceOf",
      "outputs": [
        {
          "name": "_balance",
          "type": "uint256"
        }
      ],
      "payable": false,
      "stateMutability": "view",
      "type": "function"
    },
    {
      "constant": true,
      "inputs": [
        {
          "name": "_owner",
          "type": "address"
        },
        {
          "name": "_index",
          "type": "uint256"
        }
      ],
      "name": "tokenOfOwnerByIndex",
      "outputs": [
        {
          "name": "_tokenId",
          "type": "uint256"
        }
      ],
      "payable": false,
      "stateMutability": "view",
      "type": "function"
    },
    {
      "constant": true,
      "inputs": [
        {
          "name": "_metaID",
          "type": "uint256"
        }
      ],
      "name": "getRecoveryData",
      "outputs": [
        {
          "name": "",
          "type": "bytes32"
        }
      ],
      "payable": false,
      "stateMutability": "view",
      "type": "function"
    },
    {
      "constant": true,
      "inputs": [
        {
          "name": "hash",
          "type": "bytes32"
        },
        {
          "name": "sig",
          "type": "bytes"
        }
      ],
      "name": "ecrecovery",
      "outputs": [
        {
          "name": "",
          "type": "address"
        }
      ],
      "payable": false,
      "stateMutability": "view",
      "type": "function"
    },
    {
      "constant": true,
      "inputs": [
        {
          "name": "message",
          "type": "bytes32"
        },
        {
          "name": "sig",
          "type": "bytes"
        },
        {
          "name": "signer",
          "type": "address"
        }
      ],
      "name": "ecverify",
      "outputs": [
        {
          "name": "",
          "type": "bool"
        }
      ],
      "payable": false,
      "stateMutability": "view",
      "type": "function"
    },
    {
      "constant": true,
      "inputs": [
        {
          "name": "b",
          "type": "bytes"
        }
      ],
      "name": "getAddressFromMetaPackage",
      "outputs": [
        {
          "name": "",
          "type": "address"
        }
      ],
      "payable": false,
      "stateMutability": "pure",
      "type": "function"
    }
  ],
  "bytecode": "0x6080604052336000806101000a81548173ffffffffffffffffffffffffffffffffffffffff021916908373ffffffffffffffffffffffffffffffffffffffff16021790555061259c806100536000396000f3006080604052600436106100f1576000357c0100000000000000000000000000000000000000000000000000000000900463ffffffff1680630c1f2e0f146100f65780631ea663b51461014d5780632f745c591461019657806339cdde32146101f75780636352211e146102a6578063702fecd11461031357806370a08231146103e8578063711718221461043f57806376845d261461048257806377d32e94146105575780638da5cb5b1461060e578063ade266fe14610665578063c520a1e014610748578063c87b56dd146107f1578063e9e7b9ea14610897578063eaeaa3d9146108ca578063f2fde38b146108fd575b600080fd5b34801561010257600080fd5b5061010b610940565b604051808273ffffffffffffffffffffffffffffffffffffffff1673ffffffffffffffffffffffffffffffffffffffff16815260200191505060405180910390f35b34801561015957600080fd5b5061017860048036038101908080359060200190929190505050610966565b60405180826000191660001916815260200191505060405180910390f35b3480156101a257600080fd5b506101e1600480360381019080803573ffffffffffffffffffffffffffffffffffffffff1690602001909291908035906020019092919050505061096d565b6040518082815260200191505060405180910390f35b34801561020357600080fd5b5061028c6004803603810190808035600019169060200190929190803590602001908201803590602001908080601f0160208091040260200160405190810160405280939291908181526020018383808284378201915050505050509192919290803573ffffffffffffffffffffffffffffffffffffffff169060200190929190505050610b4d565b604051808215151515815260200191505060405180910390f35b3480156102b257600080fd5b506102d160048036038101908080359060200190929190505050610c60565b604051808273ffffffffffffffffffffffffffffffffffffffff1673ffffffffffffffffffffffffffffffffffffffff16815260200191505060405180910390f35b34801561031f57600080fd5b506103ce6004803603810190808035600019169060200190929190803590602001908201803590602001908080601f0160208091040260200160405190810160405280939291908181526020018383808284378201915050505050509192919290803590602001908201803590602001908080601f0160208091040260200160405190810160405280939291908181526020018383808284378201915050505050509192919290505050610e0b565b604051808215151515815260200191505060405180910390f35b3480156103f457600080fd5b50610429600480360381019080803573ffffffffffffffffffffffffffffffffffffffff1690602001909291905050506112c3565b6040518082815260200191505060405180910390f35b34801561044b57600080fd5b50610480600480360381019080803573ffffffffffffffffffffffffffffffffffffffff16906020019092919050505061149a565b005b34801561048e57600080fd5b5061053d6004803603810190808035600019169060200190929190803590602001908201803590602001908080601f0160208091040260200160405190810160405280939291908181526020018383808284378201915050505050509192919290803590602001908201803590602001908080601f0160208091040260200160405190810160405280939291908181526020018383808284378201915050505050509192919290505050611539565b604051808215151515815260200191505060405180910390f35b34801561056357600080fd5b506105cc6004803603810190808035600019169060200190929190803590602001908201803590602001908080601f0160208091040260200160405190810160405280939291908181526020018383808284378201915050505050509192919290505050611979565b604051808273ffffffffffffffffffffffffffffffffffffffff1673ffffffffffffffffffffffffffffffffffffffff16815260200191505060405180910390f35b34801561061a57600080fd5b50610623611a71565b604051808273ffffffffffffffffffffffffffffffffffffffff1673ffffffffffffffffffffffffffffffffffffffff16815260200191505060405180910390f35b34801561067157600080fd5b5061072e60048036038101908080356000191690602001909291908035600019169060200190929190803590602001908201803590602001908080601f0160208091040260200160405190810160405280939291908181526020018383808284378201915050505050509192919290803590602001908201803590602001908080601f0160208091040260200160405190810160405280939291908181526020018383808284378201915050505050509192919290505050611a96565b604051808215151515815260200191505060405180910390f35b34801561075457600080fd5b506107af600480360381019080803590602001908201803590602001908080601f01602080910402602001604051908101604052809392919081815260200183838082843782019150505050505091929192905050506120c2565b604051808273ffffffffffffffffffffffffffffffffffffffff1673ffffffffffffffffffffffffffffffffffffffff16815260200191505060405180910390f35b3480156107fd57600080fd5b5061081c600480360381019080803590602001909291905050506121d1565b6040518080602001828103825283818151815260200191508051906020019080838360005b8381101561085c578082015181840152602081019050610841565b50505050905090810190601f1680156108895780820380516001836020036101000a031916815260200191505b509250505060405180910390f35b3480156108a357600080fd5b506108ac6123d3565b60405180826000191660001916815260200191505060405180910390f35b3480156108d657600080fd5b506108df6123f7565b60405180826000191660001916815260200191505060405180910390f35b34801561090957600080fd5b5061093e600480360381019080803573ffffffffffffffffffffffffffffffffffffffff16906020019092919050505061241b565b005b600160009054906101000a900473ffffffffffffffffffffffffffffffffffffffff1681565b6000919050565b600080600160009054906101000a900473ffffffffffffffffffffffffffffffffffffffff1673ffffffffffffffffffffffffffffffffffffffff16630d2020dd7f4d657461494400000000000000000000000000000000000000000000000000006040518263ffffffff167c0100000000000000000000000000000000000000000000000000000000028152600401808260001916600019168152602001915050602060405180830381600087803b158015610a2957600080fd5b505af1158015610a3d573d6000803e3d6000fd5b505050506040513d6020811015610a5357600080fd5b810190808051906020019092919050505090508073ffffffffffffffffffffffffffffffffffffffff16632f745c5985856040518363ffffffff167c0100000000000000000000000000000000000000000000000000000000028152600401808373ffffffffffffffffffffffffffffffffffffffff1673ffffffffffffffffffffffffffffffffffffffff16815260200182815260200192505050602060405180830381600087803b158015610b0957600080fd5b505af1158015610b1d573d6000803e3d6000fd5b505050506040513d6020811015610b3357600080fd5b810190808051906020019092919050505091505092915050565b6000606084604051808260001916600019168152602001915050604051809103902094506040805190810160405280601c81526020017f19457468657265756d205369676e6564204d6573736167653a0a333200000000815250905080856040518083805190602001908083835b602083101515610be05780518252602082019150602081019050602083039250610bbb565b6001836020036101000a03801982511681845116808217855250505050505090500182600019166000191681526020019250505060405180910390209450610c288585611979565b73ffffffffffffffffffffffffffffffffffffffff168373ffffffffffffffffffffffffffffffffffffffff16149150509392505050565b600080600160009054906101000a900473ffffffffffffffffffffffffffffffffffffffff1673ffffffffffffffffffffffffffffffffffffffff16630d2020dd7f4d657461494400000000000000000000000000000000000000000000000000006040518263ffffffff167c0100000000000000000000000000000000000000000000000000000000028152600401808260001916600019168152602001915050602060405180830381600087803b158015610d1c57600080fd5b505af1158015610d30573d6000803e3d6000fd5b505050506040513d6020811015610d4657600080fd5b810190808051906020019092919050505090508073ffffffffffffffffffffffffffffffffffffffff16636352211e846040518263ffffffff167c010000000000000000000000000000000000000000000000000000000002815260040180828152602001915050602060405180830381600087803b158015610dc857600080fd5b505af1158015610ddc573d6000803e3d6000fd5b505050506040513d6020811015610df257600080fd5b8101908080519060200190929190505050915050919050565b6000806000600160009054906101000a900473ffffffffffffffffffffffffffffffffffffffff1673ffffffffffffffffffffffffffffffffffffffff166360d6c7cf7f4d6574616469756d4964656e746974794d616e61676572000000000000000000336040518363ffffffff167c01000000000000000000000000000000000000000000000000000000000281526004018083600019166000191681526020018273ffffffffffffffffffffffffffffffffffffffff1673ffffffffffffffffffffffffffffffffffffffff16815260200192505050602060405180830381600087803b158015610efd57600080fd5b505af1158015610f11573d6000803e3d6000fd5b505050506040513d6020811015610f2757600080fd5b81019080805190602001909291905050501515610f4357600080fd5b610f4c846120c2565b9150610f59868684610b4d565b1515610f6457600080fd5b600160009054906101000a900473ffffffffffffffffffffffffffffffffffffffff1673ffffffffffffffffffffffffffffffffffffffff16630d2020dd7f4d657461494400000000000000000000000000000000000000000000000000006040518263ffffffff167c0100000000000000000000000000000000000000000000000000000000028152600401808260001916600019168152602001915050602060405180830381600087803b15801561101d57600080fd5b505af1158015611031573d6000803e3d6000fd5b505050506040513d602081101561104757600080fd5b810190808051906020019092919050505090508073ffffffffffffffffffffffffffffffffffffffff16634f558e7987600190046040518263ffffffff167c010000000000000000000000000000000000000000000000000000000002815260040180828152602001915050602060405180830381600087803b1580156110cd57600080fd5b505af11580156110e1573d6000803e3d6000fd5b505050506040513d60208110156110f757600080fd5b810190808051906020019092919050505015151561111457600080fd5b8073ffffffffffffffffffffffffffffffffffffffff1663d3fc9864838860019004876040518463ffffffff167c0100000000000000000000000000000000000000000000000000000000028152600401808473ffffffffffffffffffffffffffffffffffffffff1673ffffffffffffffffffffffffffffffffffffffff16815260200183815260200180602001828103825283818151815260200191508051906020019080838360005b838110156111da5780820151818401526020810190506111bf565b50505050905090810190601f1680156112075780820380516001836020036101000a031916815260200191505b50945050505050602060405180830381600087803b15801561122857600080fd5b505af115801561123c573d6000803e3d6000fd5b505050506040513d602081101561125257600080fd5b8101908080519060200190929190505050151561126e57600080fd5b85600019168273ffffffffffffffffffffffffffffffffffffffff167f0afbed7f307c1b94f44fd781ff78fa8f85831c62848a1c53db8d28f575cf1aa160405160405180910390a36001925050509392505050565b600080600160009054906101000a900473ffffffffffffffffffffffffffffffffffffffff1673ffffffffffffffffffffffffffffffffffffffff16630d2020dd7f4d657461494400000000000000000000000000000000000000000000000000006040518263ffffffff167c0100000000000000000000000000000000000000000000000000000000028152600401808260001916600019168152602001915050602060405180830381600087803b15801561137f57600080fd5b505af1158015611393573d6000803e3d6000fd5b505050506040513d60208110156113a957600080fd5b810190808051906020019092919050505090508073ffffffffffffffffffffffffffffffffffffffff166370a08231846040518263ffffffff167c0100000000000000000000000000000000000000000000000000000000028152600401808273ffffffffffffffffffffffffffffffffffffffff1673ffffffffffffffffffffffffffffffffffffffff168152602001915050602060405180830381600087803b15801561145757600080fd5b505af115801561146b573d6000803e3d6000fd5b505050506040513d602081101561148157600080fd5b8101908080519060200190929190505050915050919050565b6000809054906101000a900473ffffffffffffffffffffffffffffffffffffffff1673ffffffffffffffffffffffffffffffffffffffff163373ffffffffffffffffffffffffffffffffffffffff161415156114f557600080fd5b80600160006101000a81548173ffffffffffffffffffffffffffffffffffffffff021916908373ffffffffffffffffffffffffffffffffffffffff16021790555050565b6000806000600160009054906101000a900473ffffffffffffffffffffffffffffffffffffffff1673ffffffffffffffffffffffffffffffffffffffff166360d6c7cf7f4d6574616469756d4964656e746974794d616e61676572000000000000000000336040518363ffffffff167c01000000000000000000000000000000000000000000000000000000000281526004018083600019166000191681526020018273ffffffffffffffffffffffffffffffffffffffff1673ffffffffffffffffffffffffffffffffffffffff16815260200192505050602060405180830381600087803b15801561162b57600080fd5b505af115801561163f573d6000803e3d6000fd5b505050506040513d602081101561165557600080fd5b8101908080519060200190929190505050151561167157600080fd5b61167a846120c2565b9150611687868684610b4d565b151561169257600080fd5b600160009054906101000a900473ffffffffffffffffffffffffffffffffffffffff1673ffffffffffffffffffffffffffffffffffffffff16630d2020dd7f4d657461494400000000000000000000000000000000000000000000000000006040518263ffffffff167c0100000000000000000000000000000000000000000000000000000000028152600401808260001916600019168152602001915050602060405180830381600087803b15801561174b57600080fd5b505af115801561175f573d6000803e3d6000fd5b505050506040513d602081101561177557600080fd5b810190808051906020019092919050505090508173ffffffffffffffffffffffffffffffffffffffff168173ffffffffffffffffffffffffffffffffffffffff16636352211e88600190046040518263ffffffff167c010000000000000000000000000000000000000000000000000000000002815260040180828152602001915050602060405180830381600087803b15801561181257600080fd5b505af1158015611826573d6000803e3d6000fd5b505050506040513d602081101561183c57600080fd5b810190808051906020019092919050505073ffffffffffffffffffffffffffffffffffffffff1614151561186f57600080fd5b8073ffffffffffffffffffffffffffffffffffffffff166342966c6887600190046040518263ffffffff167c010000000000000000000000000000000000000000000000000000000002815260040180828152602001915050602060405180830381600087803b1580156118e257600080fd5b505af11580156118f6573d6000803e3d6000fd5b505050506040513d602081101561190c57600080fd5b8101908080519060200190929190505050151561192857600080fd5b85600019168273ffffffffffffffffffffffffffffffffffffffff167f4e8bb03e2af31dac5f75505a69e10ce88e9d1239cc1859e1e79a7d360fbf061b60405160405180910390a350509392505050565b600080600080604185511415156119935760009350611a68565b602085015192506040850151915060ff6041860151169050601b8160ff1610156119be57601b810190505b601b8160ff16141580156119d65750601c8160ff1614155b156119e45760009350611a68565b600186828585604051600081526020016040526040518085600019166000191681526020018460ff1660ff1681526020018360001916600019168152602001826000191660001916815260200194505050505060206040516020810390808403906000865af1158015611a5b573d6000803e3d6000fd5b5050506020604051035193505b50505092915050565b6000809054906101000a900473ffffffffffffffffffffffffffffffffffffffff1681565b6000806000600160009054906101000a900473ffffffffffffffffffffffffffffffffffffffff1673ffffffffffffffffffffffffffffffffffffffff166360d6c7cf7f4d6574616469756d4964656e746974794d616e61676572000000000000000000336040518363ffffffff167c01000000000000000000000000000000000000000000000000000000000281526004018083600019166000191681526020018273ffffffffffffffffffffffffffffffffffffffff1673ffffffffffffffffffffffffffffffffffffffff16815260200192505050602060405180830381600087803b158015611b8857600080fd5b505af1158015611b9c573d6000803e3d6000fd5b505050506040513d6020811015611bb257600080fd5b81019080805190602001909291905050501515611bce57600080fd5b611bd7846120c2565b9150611be4868684610b4d565b1515611bef57600080fd5b600160009054906101000a900473ffffffffffffffffffffffffffffffffffffffff1673ffffffffffffffffffffffffffffffffffffffff16630d2020dd7f4d657461494400000000000000000000000000000000000000000000000000006040518263ffffffff167c0100000000000000000000000000000000000000000000000000000000028152600401808260001916600019168152602001915050602060405180830381600087803b158015611ca857600080fd5b505af1158015611cbc573d6000803e3d6000fd5b505050506040513d6020811015611cd257600080fd5b810190808051906020019092919050505090508073ffffffffffffffffffffffffffffffffffffffff16634f558e7988600190046040518263ffffffff167c010000000000000000000000000000000000000000000000000000000002815260040180828152602001915050602060405180830381600087803b158015611d5857600080fd5b505af1158015611d6c573d6000803e3d6000fd5b505050506040513d6020811015611d8257600080fd5b81019080805190602001909291905050501515611d9e57600080fd5b8073ffffffffffffffffffffffffffffffffffffffff16634f558e7987600190046040518263ffffffff167c010000000000000000000000000000000000000000000000000000000002815260040180828152602001915050602060405180830381600087803b158015611e1157600080fd5b505af1158015611e25573d6000803e3d6000fd5b505050506040513d6020811015611e3b57600080fd5b8101908080519060200190929190505050151515611e5857600080fd5b8073ffffffffffffffffffffffffffffffffffffffff166342966c6888600190046040518263ffffffff167c010000000000000000000000000000000000000000000000000000000002815260040180828152602001915050602060405180830381600087803b158015611ecb57600080fd5b505af1158015611edf573d6000803e3d6000fd5b505050506040513d6020811015611ef557600080fd5b81019080805190602001909291905050501515611f1157600080fd5b8073ffffffffffffffffffffffffffffffffffffffff1663d3fc9864838860019004876040518463ffffffff167c0100000000000000000000000000000000000000000000000000000000028152600401808473ffffffffffffffffffffffffffffffffffffffff1673ffffffffffffffffffffffffffffffffffffffff16815260200183815260200180602001828103825283818151815260200191508051906020019080838360005b83811015611fd7578082015181840152602081019050611fbc565b50505050905090810190601f1680156120045780820380516001836020036101000a031916815260200191505b50945050505050602060405180830381600087803b15801561202557600080fd5b505af1158015612039573d6000803e3d6000fd5b505050506040513d602081101561204f57600080fd5b8101908080519060200190929190505050151561206b57600080fd5b856000191687600019168373ffffffffffffffffffffffffffffffffffffffff167fde4d89fa4d58496bf0ceb285c9696695ffef28d55d9c47936ef981f124aa2c8c60405160405180910390a45050949350505050565b600080600080601692508285511115156120db57600080fd5b600190505b60158110156121b6576008600182030260ff7f010000000000000000000000000000000000000000000000000000000000000002868381518110151561212257fe5b9060200101517f010000000000000000000000000000000000000000000000000000000000000090047f010000000000000000000000000000000000000000000000000000000000000002167effffffffffffffffffffffffffffffffffffffffffffffffffffffffffffff19166bffffffffffffffffffffffff19169060020a90048217915080806001019150506120e0565b816c0100000000000000000000000090049350505050919050565b60606000600160009054906101000a900473ffffffffffffffffffffffffffffffffffffffff1673ffffffffffffffffffffffffffffffffffffffff16630d2020dd7f4d657461494400000000000000000000000000000000000000000000000000006040518263ffffffff167c0100000000000000000000000000000000000000000000000000000000028152600401808260001916600019168152602001915050602060405180830381600087803b15801561228e57600080fd5b505af11580156122a2573d6000803e3d6000fd5b505050506040513d60208110156122b857600080fd5b810190808051906020019092919050505090508073ffffffffffffffffffffffffffffffffffffffff1663c87b56dd846040518263ffffffff167c010000000000000000000000000000000000000000000000000000000002815260040180828152602001915050600060405180830381600087803b15801561233a57600080fd5b505af115801561234e573d6000803e3d6000fd5b505050506040513d6000823e3d601f19601f82011682018060405250602081101561237857600080fd5b81019080805164010000000081111561239057600080fd5b828101905060208101848111156123a657600080fd5b81518560018202830111640100000000821117156123c357600080fd5b5050929190505050915050919050565b7f4d6574616469756d4964656e746974794d616e6167657200000000000000000081565b7f4d6574614944000000000000000000000000000000000000000000000000000081565b6000809054906101000a900473ffffffffffffffffffffffffffffffffffffffff1673ffffffffffffffffffffffffffffffffffffffff163373ffffffffffffffffffffffffffffffffffffffff1614151561247657600080fd5b600073ffffffffffffffffffffffffffffffffffffffff168173ffffffffffffffffffffffffffffffffffffffff16141515156124b257600080fd5b8073ffffffffffffffffffffffffffffffffffffffff166000809054906101000a900473ffffffffffffffffffffffffffffffffffffffff1673ffffffffffffffffffffffffffffffffffffffff167f8be0079c531659141344cd1fd0a4f28419497f9722a3daafe3b4186f6b6457e060405160405180910390a3806000806101000a81548173ffffffffffffffffffffffffffffffffffffffff021916908373ffffffffffffffffffffffffffffffffffffffff160217905550505600a165627a7a723058206bdb6a8d061073a46d58048a451946dc8b7eafcaef36e54c8ba2a346cd09a6720029",
  "source": "pragma solidity ^0.4.21;\n\nimport \"./openzeppelin-solidity/contracts/ownership/Ownable.sol\";\nimport \"./MetadiumNameService.sol\";\n// contract MasterContract{\n\n// }\ncontract ERC20Basic {\n  function totalSupply() public view returns (uint256);\n  function balanceOf(address who) public view returns (uint256);\n  function transfer(address to, uint256 value) public returns (bool);\n  event Transfer(address indexed from, address indexed to, uint256 value);\n}\n\ncontract MetaID {\n    function mint(address _to, uint256 _tokenId, string _uri) public returns (bool);\n    function setTokenURI(uint256 _tokenId, string _uri) public;\n    function balanceOf(address _owner) public view returns (uint256 _balance);\n    function burn(uint256 _tokenId) public returns (bool);\n    function exists(uint256 _tokenId) public view returns (bool _exists);\n    function ownerOf(uint256 _tokenId) public view returns (address _owner);\n    function tokenURI(uint256 _tokenId) public view returns (string);\n    function tokenOfOwnerByIndex(address _owner, uint256 _index) public view returns (uint256 _tokenId);\n}\n\ncontract MetadiumIdentityManager is Ownable {\n\n    MetadiumNameService public MNS;\n    bytes32 public constant nameMetaIdentityManager = \"MetadiumIdentityManager\";\n    bytes32 public constant nameMetaID = \"MetaID\";\n    \n    event CreateMetaID(address indexed owner, bytes32 indexed metaID);\n    event UpdateMetaID(address indexed owner, bytes32 indexed oldMetaID, bytes32 indexed newMetaID);\n    event DeleteMetaID(address indexed owner, bytes32 indexed metaID);\n    \n    function setMetadiumNameServiceAddress(address _addr) onlyOwner {\n        MNS = MetadiumNameService(_addr);\n    }\n\n    modifier permissioned() {\n        require(MNS.getPermission(nameMetaIdentityManager, msg.sender));\n        _;\n    }\n\n    /**\n    * @dev Function to create New Meta ID. signature = user_privatekey_sign(_metaID)\n    * @param _metaID metaID of user\n    * @param _sig ECDSA signature\n    * @param _metaPackage = Version(1 byte) . userSenderAddress(20 bytes) . AttestationMask(32 bytes) . Status(32 bytes) \n    * @return A boolean that indicates if the operation was successful.\n    */\n    function createMetaID(bytes32 _metaID, bytes _sig, bytes _metaPackage) permissioned public returns (bool){\n        //permission checked by modifier permissioned\n\n        //get address from metaPackage\n        address _senderFromMetaPackage = getAddressFromMetaPackage(_metaPackage);\n        \n        //verify the signature using ecverify & sender address\n        require(ecverify(_metaID, _sig, _senderFromMetaPackage));\n\n        //get metaID address from Metadium Name Service\n        MetaID metaIDContract = MetaID(MNS.getContractAddress(nameMetaID));\n\n        //check whether same meta ID exists if yes, revert\n        require(!metaIDContract.exists(uint256(_metaID)));\n\n        //if not, mint erc721 token to sender address \n        require(metaIDContract.mint(_senderFromMetaPackage, uint256(_metaID), string(_metaPackage)));\n\n        CreateMetaID(_senderFromMetaPackage, _metaID);\n        return true;\n\n    }\n\n\n    function deleteMetaID(bytes32 _metaID, bytes _sig, bytes _metaPackage) permissioned public returns (bool){\n        //permission check from modifier permissioned\n\n        //get address from metaPackage\n        address _senderFromMetaPackage = getAddressFromMetaPackage(_metaPackage);\n        \n        //verify the signature using ecverify & sender address\n        require(ecverify(_metaID, _sig, _senderFromMetaPackage));\n\n        //get metaID address from Metadium Name Service\n        MetaID metaIDContract = MetaID(MNS.getContractAddress(nameMetaID));\n\n        //check whether the metaID belongs to the sender. this also checks existence\n        require(metaIDContract.ownerOf(uint256(_metaID)) == _senderFromMetaPackage);\n\n        //burn metaID\n        require(metaIDContract.burn(uint256(_metaID)));\n\n        DeleteMetaID(_senderFromMetaPackage, _metaID);\n        \n    }\n\n    function updateMetaID(bytes32 _oldMetaID, bytes32 _newMetaID, bytes _sig, bytes _metaPackage) permissioned public returns (bool){\n        //permission check from modifier permissionedOnly(msg.sender)\n\n        //get address from metaPackage\n        address _senderFromMetaPackage = getAddressFromMetaPackage(_metaPackage);\n\n        //verify the signature using ecverify & sender address\n        require(ecverify(_newMetaID, _sig, _senderFromMetaPackage));\n\n        //get metaID address from Metadium Name Service\n        MetaID metaIDContract = MetaID(MNS.getContractAddress(nameMetaID));\n\n        //check whether same old Meta ID exists\n        require(metaIDContract.exists(uint256(_oldMetaID)));\n\n        //check whether same new Meta ID exists\n        require(!metaIDContract.exists(uint256(_newMetaID)));\n      \n        //burn old erc721 token from sender address\n        require(metaIDContract.burn(uint256(_oldMetaID)));\n\n        //mint new erc721 token to sender address \n        require(metaIDContract.mint(_senderFromMetaPackage, uint256(_newMetaID), string(_metaPackage)));\n\n        //approve transfer and burn and mint to permissioned address(e.g. proxy)\n        UpdateMetaID(_senderFromMetaPackage, _oldMetaID, _newMetaID);\n\n    }\n/*\n    function createNewMetaRecovery(uint256 _metaID, uint8 _sigV, bytes32 _sigR, bytes32 _sigS, bytes _metaPackage) public returns (bool){\n        //permission check from modifier permissionedOnly(msg.sender)\n        \n        //metaPackage = Version(1 byte) . userSenderAddress(20 bytes) . IPFSpath(bytes)\n        \n        //get address from metaPackage\n\n        //signature verifying via ecrecovery & sender address \n\n        \n        //get IDToken address from Master Contract\n        //metaERC721 metaID = metaERC721(MC.getContract(\"MetaID\"));\n\n        //check whether same meta ID exists\n\n        //if not,\n        //mint erc721 token to sender address \n\n\n        //approve transfer and burn and mint to permissioned address(e.g. peroxy)\n        \n        //register new metaID\n        \n        //require(metaID.mint(_owner, _tokenID, _metaID));\n\n        //get metaID cnt , and set the complements\n        //uint256 _balance = metaID.balanceOf(_owner); \n\n        //step 2\n        //get metadiumToken address from Master contract\n        //ERC20Basic _metadium = ERC20Basic(MC.getContract(\"Metadium\"));\n\n        //give this address metadium token along with above the condition.\n        //CIS contract must have enough tokens\n        //require(_metadium.transfer(_owner, _balance * (10 **18)));\n\n        return true;\n\n    }\n*/\n\n    function ownerOf(uint256 _tokenId) public view returns (address _owner){\n        MetaID metaIDContract = MetaID(MNS.getContractAddress(nameMetaID));\n        return metaIDContract.ownerOf(_tokenId);\n    }\n\n    function tokenURI(uint256 _tokenId) public view returns (string){\n        MetaID metaIDContract = MetaID(MNS.getContractAddress(nameMetaID));\n        return metaIDContract.tokenURI(_tokenId);\n    }\n\n    function balanceOf(address _owner) public view returns (uint256 _balance){\n        MetaID metaIDContract = MetaID(MNS.getContractAddress(nameMetaID));\n        return metaIDContract.balanceOf(_owner);\n    }\n\n    function tokenOfOwnerByIndex(address _owner, uint256 _index) public view returns (uint256 _tokenId){\n        MetaID metaIDContract = MetaID(MNS.getContractAddress(nameMetaID));\n        return metaIDContract.tokenOfOwnerByIndex(_owner, _index);\n    }\n\n    function getRecoveryData(uint256 _metaID) public constant returns (bytes32) {\n\n    }\n\n    function ecrecovery(bytes32 hash, bytes sig) public constant returns (address) {\n        bytes32 r;\n        bytes32 s;\n        uint8 v;\n    \n        if (sig.length != 65) {\n        return 0;\n        }\n\n        assembly {\n            r := mload(add(sig, 32))\n            s := mload(add(sig, 64))\n            v := and(mload(add(sig, 65)), 255)\n        }\n\n        // https://github.com/ethereum/go-ethereum/issues/2053\n        if (v < 27) {\n            v += 27;\n        }\n\n        if (v != 27 && v != 28) {\n            return 0;\n        }\n\n        /* prefix might be needed for geth only\n        * https://github.com/ethereum/go-ethereum/issues/3731\n        */\n        // bytes memory prefix = \"\\x19Ethereum Signed Message:\\n32\";\n        // hash = sha3(prefix, hash);\n\n        return ecrecover(hash, v, r, s);\n    }\n\n    function ecverify(bytes32 message, bytes sig, address signer) public constant returns (bool) {\n        message = keccak256(message);\n        bytes memory prefix = \"\\x19Ethereum Signed Message:\\n32\";\n        //hash = keccak256(prefix, hash);\n        message = keccak256(prefix, message);\n        return signer == ecrecovery(message, sig);\n    }\n    function getAddressFromMetaPackage(bytes b) public pure returns (address) {\n        //constant 22 should be named.\n        uint minLength = 22;\n        require(b.length > minLength);\n\n        bytes20 out;\n        for (uint i = 1; i < 21; i++) {\n            out |= bytes20(b[i] & 0xFF) >> ((i-1) * 8);    \n        }\n        return address(out);\n    }\n}",
  "sourcePath": "/Users/coinplug/BangGijin/MetadiumBlockchain/contracts/MetadiumIdentityManager.sol",
  "compiler": {
    "name": "solc",
    "version": "0.4.23+commit.124ca40d.Emscripten.clang"
  },
  "schemaVersion": "2.0.0",
  "updatedAt": "2018-06-25T08:20:55.414Z"
}