{
  "contractName": "MetadiumIdentityManager",
  "abi": [
    {
      "constant": true,
      "inputs": [],
      "name": "MNS",
      "outputs": [
        {
          "name": "",
          "type": "address"
        }
      ],
      "payable": false,
      "stateMutability": "view",
      "type": "function"
    },
    {
      "constant": true,
      "inputs": [],
      "name": "owner",
      "outputs": [
        {
          "name": "",
          "type": "address"
        }
      ],
      "payable": false,
      "stateMutability": "view",
      "type": "function"
    },
    {
      "constant": true,
      "inputs": [],
      "name": "MID",
      "outputs": [
        {
          "name": "",
          "type": "address"
        }
      ],
      "payable": false,
      "stateMutability": "view",
      "type": "function"
    },
    {
      "constant": true,
      "inputs": [],
      "name": "nameMetaIdentityManager",
      "outputs": [
        {
          "name": "",
          "type": "bytes32"
        }
      ],
      "payable": false,
      "stateMutability": "view",
      "type": "function"
    },
    {
      "constant": true,
      "inputs": [],
      "name": "nameMetaID",
      "outputs": [
        {
          "name": "",
          "type": "bytes32"
        }
      ],
      "payable": false,
      "stateMutability": "view",
      "type": "function"
    },
    {
      "constant": false,
      "inputs": [
        {
          "name": "newOwner",
          "type": "address"
        }
      ],
      "name": "transferOwnership",
      "outputs": [],
      "payable": false,
      "stateMutability": "nonpayable",
      "type": "function"
    },
    {
      "anonymous": false,
      "inputs": [
        {
          "indexed": true,
          "name": "owner",
          "type": "address"
        },
        {
          "indexed": true,
          "name": "metaID",
          "type": "bytes32"
        }
      ],
      "name": "CreateMetaID",
      "type": "event"
    },
    {
      "anonymous": false,
      "inputs": [
        {
          "indexed": true,
          "name": "owner",
          "type": "address"
        },
        {
          "indexed": true,
          "name": "oldMetaID",
          "type": "bytes32"
        },
        {
          "indexed": true,
          "name": "newMetaID",
          "type": "bytes32"
        }
      ],
      "name": "UpdateMetaID",
      "type": "event"
    },
    {
      "anonymous": false,
      "inputs": [
        {
          "indexed": true,
          "name": "owner",
          "type": "address"
        },
        {
          "indexed": true,
          "name": "oldMetaID",
          "type": "bytes32"
        },
        {
          "indexed": true,
          "name": "newMetaID",
          "type": "bytes32"
        }
      ],
      "name": "RestoreMetaID",
      "type": "event"
    },
    {
      "anonymous": false,
      "inputs": [
        {
          "indexed": true,
          "name": "owner",
          "type": "address"
        },
        {
          "indexed": true,
          "name": "metaID",
          "type": "bytes32"
        }
      ],
      "name": "DeleteMetaID",
      "type": "event"
    },
    {
      "anonymous": false,
      "inputs": [
        {
          "indexed": true,
          "name": "previousOwner",
          "type": "address"
        },
        {
          "indexed": true,
          "name": "newOwner",
          "type": "address"
        }
      ],
      "name": "OwnershipTransferred",
      "type": "event"
    },
    {
      "constant": false,
      "inputs": [
        {
          "name": "_metaID",
          "type": "bytes32"
        },
        {
          "name": "_sig",
          "type": "bytes"
        },
        {
          "name": "_metaPackage",
          "type": "bytes"
        }
      ],
      "name": "createMetaID",
      "outputs": [
        {
          "name": "",
          "type": "bool"
        }
      ],
      "payable": false,
      "stateMutability": "nonpayable",
      "type": "function"
    },
    {
      "constant": false,
      "inputs": [
        {
          "name": "_metaID",
          "type": "bytes32"
        },
        {
          "name": "_timestamp",
          "type": "bytes"
        },
        {
          "name": "_sig",
          "type": "bytes"
        }
      ],
      "name": "deleteMetaID",
      "outputs": [
        {
          "name": "",
          "type": "bool"
        }
      ],
      "payable": false,
      "stateMutability": "nonpayable",
      "type": "function"
    },
    {
      "constant": false,
      "inputs": [
        {
          "name": "_oldMetaID",
          "type": "bytes32"
        },
        {
          "name": "_newMetaID",
          "type": "bytes32"
        },
        {
          "name": "_sig",
          "type": "bytes"
        },
        {
          "name": "_metaPackage",
          "type": "bytes"
        }
      ],
      "name": "updateMetaID",
      "outputs": [
        {
          "name": "",
          "type": "bool"
        }
      ],
      "payable": false,
      "stateMutability": "nonpayable",
      "type": "function"
    },
    {
      "constant": false,
      "inputs": [
        {
          "name": "_oldMetaID",
          "type": "bytes32"
        },
        {
          "name": "_newMetaID",
          "type": "bytes32"
        },
        {
          "name": "_oldAddress",
          "type": "address"
        },
        {
          "name": "_sig",
          "type": "bytes"
        },
        {
          "name": "_metaPackage",
          "type": "bytes"
        }
      ],
      "name": "restoreMetaID",
      "outputs": [
        {
          "name": "",
          "type": "bool"
        }
      ],
      "payable": false,
      "stateMutability": "nonpayable",
      "type": "function"
    },
    {
      "constant": true,
      "inputs": [
        {
          "name": "_tokenId",
          "type": "bytes32"
        }
      ],
      "name": "ownerOf",
      "outputs": [
        {
          "name": "_owner",
          "type": "address"
        }
      ],
      "payable": false,
      "stateMutability": "view",
      "type": "function"
    },
    {
      "constant": true,
      "inputs": [
        {
          "name": "_tokenId",
          "type": "bytes32"
        }
      ],
      "name": "tokenURI",
      "outputs": [
        {
          "name": "",
          "type": "string"
        }
      ],
      "payable": false,
      "stateMutability": "view",
      "type": "function"
    },
    {
      "constant": true,
      "inputs": [
        {
          "name": "_tokenId",
          "type": "bytes32"
        }
      ],
      "name": "tokenURIAsBytes",
      "outputs": [
        {
          "name": "",
          "type": "bytes"
        }
      ],
      "payable": false,
      "stateMutability": "view",
      "type": "function"
    },
    {
      "constant": true,
      "inputs": [
        {
          "name": "_owner",
          "type": "address"
        }
      ],
      "name": "balanceOf",
      "outputs": [
        {
          "name": "_balance",
          "type": "uint256"
        }
      ],
      "payable": false,
      "stateMutability": "view",
      "type": "function"
    },
    {
      "constant": true,
      "inputs": [
        {
          "name": "_owner",
          "type": "address"
        },
        {
          "name": "_index",
          "type": "uint256"
        }
      ],
      "name": "tokenOfOwnerByIndex",
      "outputs": [
        {
          "name": "_tokenId",
          "type": "bytes32"
        }
      ],
      "payable": false,
      "stateMutability": "view",
      "type": "function"
    },
    {
      "constant": true,
      "inputs": [
        {
          "name": "hash",
          "type": "bytes32"
        },
        {
          "name": "sig",
          "type": "bytes"
        }
      ],
      "name": "ecrecovery",
      "outputs": [
        {
          "name": "",
          "type": "address"
        }
      ],
      "payable": false,
      "stateMutability": "view",
      "type": "function"
    },
    {
      "constant": true,
      "inputs": [
        {
          "name": "message",
          "type": "bytes32"
        },
        {
          "name": "sig",
          "type": "bytes"
        },
        {
          "name": "signer",
          "type": "address"
        }
      ],
      "name": "ecverify",
      "outputs": [
        {
          "name": "",
          "type": "bool"
        }
      ],
      "payable": false,
      "stateMutability": "view",
      "type": "function"
    },
    {
      "constant": true,
      "inputs": [
        {
          "name": "message",
          "type": "bytes32"
        },
        {
          "name": "timestamp",
          "type": "bytes"
        },
        {
          "name": "sig",
          "type": "bytes"
        },
        {
          "name": "signer",
          "type": "address"
        }
      ],
      "name": "ecverifyWithTimestamp",
      "outputs": [
        {
          "name": "",
          "type": "bool"
        }
      ],
      "payable": false,
      "stateMutability": "view",
      "type": "function"
    },
    {
      "constant": true,
      "inputs": [
        {
          "name": "b",
          "type": "bytes"
        }
      ],
      "name": "getAddressFromMetaPackage",
      "outputs": [
        {
          "name": "",
          "type": "address"
        }
      ],
      "payable": false,
      "stateMutability": "pure",
      "type": "function"
    },
    {
      "constant": false,
      "inputs": [
        {
          "name": "_addr",
          "type": "address"
        }
      ],
      "name": "setMetadiumNameServiceAddress",
      "outputs": [],
      "payable": false,
      "stateMutability": "nonpayable",
      "type": "function"
    },
    {
      "constant": false,
      "inputs": [
        {
          "name": "_addr",
          "type": "address"
        }
      ],
      "name": "setMetaIDAddress",
      "outputs": [],
      "payable": false,
      "stateMutability": "nonpayable",
      "type": "function"
    }
  ],
  "bytecode": "0x6080604052336000806101000a81548173ffffffffffffffffffffffffffffffffffffffff021916908373ffffffffffffffffffffffffffffffffffffffff1602179055506132f6806100536000396000f30060806040526004361061011d576000357c0100000000000000000000000000000000000000000000000000000000900463ffffffff1680630c1f2e0f1461012257806326336ce7146101795780632f745c591461027c57806339cdde32146102e5578063702fecd11461039457806370a082311461046957806371171822146104c057806371966d141461050357806376845d261461054657806377d32e941461061b5780637dd56411146106d25780638ab38747146107435780638da5cb5b14610838578063a37dd7af1461088f578063ade266fe14610939578063afbb8d5114610a1c578063c520a1e014610ac6578063d7a7ac6814610b6f578063e9e7b9ea14610bc6578063eaeaa3d914610bf9578063f2fde38b14610c2c575b600080fd5b34801561012e57600080fd5b50610137610c6f565b604051808273ffffffffffffffffffffffffffffffffffffffff1673ffffffffffffffffffffffffffffffffffffffff16815260200191505060405180910390f35b34801561018557600080fd5b5061026260048036038101908080356000191690602001909291908035600019169060200190929190803573ffffffffffffffffffffffffffffffffffffffff169060200190929190803590602001908201803590602001908080601f0160208091040260200160405190810160405280939291908181526020018383808284378201915050505050509192919290803590602001908201803590602001908080601f0160208091040260200160405190810160405280939291908181526020018383808284378201915050505050509192919290505050610c95565b604051808215151515815260200191505060405180910390f35b34801561028857600080fd5b506102c7600480360381019080803573ffffffffffffffffffffffffffffffffffffffff1690602001909291908035906020019092919050505061128d565b60405180826000191660001916815260200191505060405180910390f35b3480156102f157600080fd5b5061037a6004803603810190808035600019169060200190929190803590602001908201803590602001908080601f0160208091040260200160405190810160405280939291908181526020018383808284378201915050505050509192919290803573ffffffffffffffffffffffffffffffffffffffff169060200190929190505050611452565b604051808215151515815260200191505060405180910390f35b3480156103a057600080fd5b5061044f6004803603810190808035600019169060200190929190803590602001908201803590602001908080601f0160208091040260200160405190810160405280939291908181526020018383808284378201915050505050509192919290803590602001908201803590602001908080601f0160208091040260200160405190810160405280939291908181526020018383808284378201915050505050509192919290505050611545565b604051808215151515815260200191505060405180910390f35b34801561047557600080fd5b506104aa600480360381019080803573ffffffffffffffffffffffffffffffffffffffff169060200190929190505050611a19565b6040518082815260200191505060405180910390f35b3480156104cc57600080fd5b50610501600480360381019080803573ffffffffffffffffffffffffffffffffffffffff169060200190929190505050611bd2565b005b34801561050f57600080fd5b50610544600480360381019080803573ffffffffffffffffffffffffffffffffffffffff169060200190929190505050611c71565b005b34801561055257600080fd5b506106016004803603810190808035600019169060200190929190803590602001908201803590602001908080601f0160208091040260200160405190810160405280939291908181526020018383808284378201915050505050509192919290803590602001908201803590602001908080601f0160208091040260200160405190810160405280939291908181526020018383808284378201915050505050509192919290505050611e03565b604051808215151515815260200191505060405180910390f35b34801561062757600080fd5b506106906004803603810190808035600019169060200190929190803590602001908201803590602001908080601f0160208091040260200160405190810160405280939291908181526020018383808284378201915050505050509192919290505050612143565b604051808273ffffffffffffffffffffffffffffffffffffffff1673ffffffffffffffffffffffffffffffffffffffff16815260200191505060405180910390f35b3480156106de57600080fd5b50610701600480360381019080803560001916906020019092919050505061223b565b604051808273ffffffffffffffffffffffffffffffffffffffff1673ffffffffffffffffffffffffffffffffffffffff16815260200191505060405180910390f35b34801561074f57600080fd5b5061081e6004803603810190808035600019169060200190929190803590602001908201803590602001908080601f0160208091040260200160405190810160405280939291908181526020018383808284378201915050505050509192919290803590602001908201803590602001908080601f0160208091040260200160405190810160405280939291908181526020018383808284378201915050505050509192919290803573ffffffffffffffffffffffffffffffffffffffff1690602001909291905050506123cc565b604051808215151515815260200191505060405180910390f35b34801561084457600080fd5b5061084d61260c565b604051808273ffffffffffffffffffffffffffffffffffffffff1673ffffffffffffffffffffffffffffffffffffffff16815260200191505060405180910390f35b34801561089b57600080fd5b506108be6004803603810190808035600019169060200190929190505050612631565b6040518080602001828103825283818151815260200191508051906020019080838360005b838110156108fe5780820151818401526020810190506108e3565b50505050905090810190601f16801561092b5780820380516001836020036101000a031916815260200191505b509250505060405180910390f35b34801561094557600080fd5b50610a0260048036038101908080356000191690602001909291908035600019169060200190929190803590602001908201803590602001908080601f0160208091040260200160405190810160405280939291908181526020018383808284378201915050505050509192919290803590602001908201803590602001908080601f0160208091040260200160405190810160405280939291908181526020018383808284378201915050505050509192919290505050612819565b604051808215151515815260200191505060405180910390f35b348015610a2857600080fd5b50610a4b6004803603810190808035600019169060200190929190505050612e10565b6040518080602001828103825283818151815260200191508051906020019080838360005b83811015610a8b578082015181840152602081019050610a70565b50505050905090810190601f168015610ab85780820380516001836020036101000a031916815260200191505b509250505060405180910390f35b348015610ad257600080fd5b50610b2d600480360381019080803590602001908201803590602001908080601f0160208091040260200160405190810160405280939291908181526020018383808284378201915050505050509192919290505050612ff8565b604051808273ffffffffffffffffffffffffffffffffffffffff1673ffffffffffffffffffffffffffffffffffffffff16815260200191505060405180910390f35b348015610b7b57600080fd5b50610b84613107565b604051808273ffffffffffffffffffffffffffffffffffffffff1673ffffffffffffffffffffffffffffffffffffffff16815260200191505060405180910390f35b348015610bd257600080fd5b50610bdb61312d565b60405180826000191660001916815260200191505060405180910390f35b348015610c0557600080fd5b50610c0e613151565b60405180826000191660001916815260200191505060405180910390f35b348015610c3857600080fd5b50610c6d600480360381019080803573ffffffffffffffffffffffffffffffffffffffff169060200190929190505050613175565b005b600160009054906101000a900473ffffffffffffffffffffffffffffffffffffffff1681565b600080600073ffffffffffffffffffffffffffffffffffffffff16600160009054906101000a900473ffffffffffffffffffffffffffffffffffffffff1673ffffffffffffffffffffffffffffffffffffffff1614158015610d465750600073ffffffffffffffffffffffffffffffffffffffff16600260009054906101000a900473ffffffffffffffffffffffffffffffffffffffff1673ffffffffffffffffffffffffffffffffffffffff1614155b1515610d5157600080fd5b600160009054906101000a900473ffffffffffffffffffffffffffffffffffffffff1673ffffffffffffffffffffffffffffffffffffffff166360d6c7cf7f4d6574616469756d4964656e746974794d616e61676572000000000000000000336040518363ffffffff167c01000000000000000000000000000000000000000000000000000000000281526004018083600019166000191681526020018273ffffffffffffffffffffffffffffffffffffffff1673ffffffffffffffffffffffffffffffffffffffff16815260200192505050602060405180830381600087803b158015610e3e57600080fd5b505af1158015610e52573d6000803e3d6000fd5b505050506040513d6020811015610e6857600080fd5b81019080805190602001909291905050501515610e8457600080fd5b82600060559050808251141515610e9a57600080fd5b610ea385612ff8565b92508673ffffffffffffffffffffffffffffffffffffffff16610ec58a61223b565b73ffffffffffffffffffffffffffffffffffffffff16141515610ee757600080fd5b610ef2888785611452565b1515610efd57600080fd5b600260009054906101000a900473ffffffffffffffffffffffffffffffffffffffff1673ffffffffffffffffffffffffffffffffffffffff16634f558e7989600190046040518263ffffffff167c010000000000000000000000000000000000000000000000000000000002815260040180828152602001915050602060405180830381600087803b158015610f9257600080fd5b505af1158015610fa6573d6000803e3d6000fd5b505050506040513d6020811015610fbc57600080fd5b8101908080519060200190929190505050151515610fd957600080fd5b600260009054906101000a900473ffffffffffffffffffffffffffffffffffffffff1673ffffffffffffffffffffffffffffffffffffffff166342966c688a600190046040518263ffffffff167c010000000000000000000000000000000000000000000000000000000002815260040180828152602001915050602060405180830381600087803b15801561106e57600080fd5b505af1158015611082573d6000803e3d6000fd5b505050506040513d602081101561109857600080fd5b810190808051906020019092919050505015156110b457600080fd5b600260009054906101000a900473ffffffffffffffffffffffffffffffffffffffff1673ffffffffffffffffffffffffffffffffffffffff1663d3fc9864848a60019004886040518463ffffffff167c0100000000000000000000000000000000000000000000000000000000028152600401808473ffffffffffffffffffffffffffffffffffffffff1673ffffffffffffffffffffffffffffffffffffffff16815260200183815260200180602001828103825283818151815260200191508051906020019080838360005b8381101561119c578082015181840152602081019050611181565b50505050905090810190601f1680156111c95780820380516001836020036101000a031916815260200191505b50945050505050602060405180830381600087803b1580156111ea57600080fd5b505af11580156111fe573d6000803e3d6000fd5b505050506040513d602081101561121457600080fd5b8101908080519060200190929190505050151561123057600080fd5b876000191689600019168473ffffffffffffffffffffffffffffffffffffffff167ffbec1ceb80a2d30df4afb2beb79b98f019a582e77fa600eb96ce2e1d1f66cf0a60405160405180910390a46001935050505095945050505050565b60008073ffffffffffffffffffffffffffffffffffffffff16600160009054906101000a900473ffffffffffffffffffffffffffffffffffffffff1673ffffffffffffffffffffffffffffffffffffffff161415801561133c5750600073ffffffffffffffffffffffffffffffffffffffff16600260009054906101000a900473ffffffffffffffffffffffffffffffffffffffff1673ffffffffffffffffffffffffffffffffffffffff1614155b151561134757600080fd5b600260009054906101000a900473ffffffffffffffffffffffffffffffffffffffff1673ffffffffffffffffffffffffffffffffffffffff16632f745c5984846040518363ffffffff167c0100000000000000000000000000000000000000000000000000000000028152600401808373ffffffffffffffffffffffffffffffffffffffff1673ffffffffffffffffffffffffffffffffffffffff16815260200182815260200192505050602060405180830381600087803b15801561140c57600080fd5b505af1158015611420573d6000803e3d6000fd5b505050506040513d602081101561143657600080fd5b8101908080519060200190929190505050600102905092915050565b600060606040805190810160405280601c81526020017f19457468657265756d205369676e6564204d6573736167653a0a333200000000815250905080856040518083805190602001908083835b6020831015156114c557805182526020820191506020810190506020830392506114a0565b6001836020036101000a0380198251168184511680821785525050505050509050018260001916600019168152602001925050506040518091039020945061150d8585612143565b73ffffffffffffffffffffffffffffffffffffffff168373ffffffffffffffffffffffffffffffffffffffff16149150509392505050565b600080600073ffffffffffffffffffffffffffffffffffffffff16600160009054906101000a900473ffffffffffffffffffffffffffffffffffffffff1673ffffffffffffffffffffffffffffffffffffffff16141580156115f65750600073ffffffffffffffffffffffffffffffffffffffff16600260009054906101000a900473ffffffffffffffffffffffffffffffffffffffff1673ffffffffffffffffffffffffffffffffffffffff1614155b151561160157600080fd5b600160009054906101000a900473ffffffffffffffffffffffffffffffffffffffff1673ffffffffffffffffffffffffffffffffffffffff166360d6c7cf7f4d6574616469756d4964656e746974794d616e61676572000000000000000000336040518363ffffffff167c01000000000000000000000000000000000000000000000000000000000281526004018083600019166000191681526020018273ffffffffffffffffffffffffffffffffffffffff1673ffffffffffffffffffffffffffffffffffffffff16815260200192505050602060405180830381600087803b1580156116ee57600080fd5b505af1158015611702573d6000803e3d6000fd5b505050506040513d602081101561171857600080fd5b8101908080519060200190929190505050151561173457600080fd5b8260006055905080825114151561174a57600080fd5b61175385612ff8565b9250611760878785611452565b151561176b57600080fd5b600260009054906101000a900473ffffffffffffffffffffffffffffffffffffffff1673ffffffffffffffffffffffffffffffffffffffff16634f558e7988600190046040518263ffffffff167c010000000000000000000000000000000000000000000000000000000002815260040180828152602001915050602060405180830381600087803b15801561180057600080fd5b505af1158015611814573d6000803e3d6000fd5b505050506040513d602081101561182a57600080fd5b810190808051906020019092919050505015151561184757600080fd5b600260009054906101000a900473ffffffffffffffffffffffffffffffffffffffff1673ffffffffffffffffffffffffffffffffffffffff1663d3fc9864848960019004886040518463ffffffff167c0100000000000000000000000000000000000000000000000000000000028152600401808473ffffffffffffffffffffffffffffffffffffffff1673ffffffffffffffffffffffffffffffffffffffff16815260200183815260200180602001828103825283818151815260200191508051906020019080838360005b8381101561192f578082015181840152602081019050611914565b50505050905090810190601f16801561195c5780820380516001836020036101000a031916815260200191505b50945050505050602060405180830381600087803b15801561197d57600080fd5b505af1158015611991573d6000803e3d6000fd5b505050506040513d60208110156119a757600080fd5b810190808051906020019092919050505015156119c357600080fd5b86600019168373ffffffffffffffffffffffffffffffffffffffff167f0afbed7f307c1b94f44fd781ff78fa8f85831c62848a1c53db8d28f575cf1aa160405160405180910390a3600193505050509392505050565b60008073ffffffffffffffffffffffffffffffffffffffff16600160009054906101000a900473ffffffffffffffffffffffffffffffffffffffff1673ffffffffffffffffffffffffffffffffffffffff1614158015611ac85750600073ffffffffffffffffffffffffffffffffffffffff16600260009054906101000a900473ffffffffffffffffffffffffffffffffffffffff1673ffffffffffffffffffffffffffffffffffffffff1614155b1515611ad357600080fd5b600260009054906101000a900473ffffffffffffffffffffffffffffffffffffffff1673ffffffffffffffffffffffffffffffffffffffff166370a08231836040518263ffffffff167c0100000000000000000000000000000000000000000000000000000000028152600401808273ffffffffffffffffffffffffffffffffffffffff1673ffffffffffffffffffffffffffffffffffffffff168152602001915050602060405180830381600087803b158015611b9057600080fd5b505af1158015611ba4573d6000803e3d6000fd5b505050506040513d6020811015611bba57600080fd5b81019080805190602001909291905050509050919050565b6000809054906101000a900473ffffffffffffffffffffffffffffffffffffffff1673ffffffffffffffffffffffffffffffffffffffff163373ffffffffffffffffffffffffffffffffffffffff16141515611c2d57600080fd5b80600160006101000a81548173ffffffffffffffffffffffffffffffffffffffff021916908373ffffffffffffffffffffffffffffffffffffffff16021790555050565b6000809054906101000a900473ffffffffffffffffffffffffffffffffffffffff1673ffffffffffffffffffffffffffffffffffffffff163373ffffffffffffffffffffffffffffffffffffffff16141515611ccc57600080fd5b600160009054906101000a900473ffffffffffffffffffffffffffffffffffffffff1673ffffffffffffffffffffffffffffffffffffffff16630d2020dd7f4d657461494400000000000000000000000000000000000000000000000000006040518263ffffffff167c0100000000000000000000000000000000000000000000000000000000028152600401808260001916600019168152602001915050602060405180830381600087803b158015611d8557600080fd5b505af1158015611d99573d6000803e3d6000fd5b505050506040513d6020811015611daf57600080fd5b8101908080519060200190929190505050600260006101000a81548173ffffffffffffffffffffffffffffffffffffffff021916908373ffffffffffffffffffffffffffffffffffffffff16021790555050565b600080600073ffffffffffffffffffffffffffffffffffffffff16600160009054906101000a900473ffffffffffffffffffffffffffffffffffffffff1673ffffffffffffffffffffffffffffffffffffffff1614158015611eb45750600073ffffffffffffffffffffffffffffffffffffffff16600260009054906101000a900473ffffffffffffffffffffffffffffffffffffffff1673ffffffffffffffffffffffffffffffffffffffff1614155b1515611ebf57600080fd5b600160009054906101000a900473ffffffffffffffffffffffffffffffffffffffff1673ffffffffffffffffffffffffffffffffffffffff166360d6c7cf7f4d6574616469756d4964656e746974794d616e61676572000000000000000000336040518363ffffffff167c01000000000000000000000000000000000000000000000000000000000281526004018083600019166000191681526020018273ffffffffffffffffffffffffffffffffffffffff1673ffffffffffffffffffffffffffffffffffffffff16815260200192505050602060405180830381600087803b158015611fac57600080fd5b505af1158015611fc0573d6000803e3d6000fd5b505050506040513d6020811015611fd657600080fd5b81019080805190602001909291905050501515611ff257600080fd5b611ffb8561223b565b9050612009858585846123cc565b151561201457600080fd5b600260009054906101000a900473ffffffffffffffffffffffffffffffffffffffff1673ffffffffffffffffffffffffffffffffffffffff166342966c6886600190046040518263ffffffff167c010000000000000000000000000000000000000000000000000000000002815260040180828152602001915050602060405180830381600087803b1580156120a957600080fd5b505af11580156120bd573d6000803e3d6000fd5b505050506040513d60208110156120d357600080fd5b810190808051906020019092919050505015156120ef57600080fd5b84600019168173ffffffffffffffffffffffffffffffffffffffff167f4e8bb03e2af31dac5f75505a69e10ce88e9d1239cc1859e1e79a7d360fbf061b60405160405180910390a360019150509392505050565b6000806000806041855114151561215d5760009350612232565b602085015192506040850151915060ff6041860151169050601b8160ff16101561218857601b810190505b601b8160ff16141580156121a05750601c8160ff1614155b156121ae5760009350612232565b600186828585604051600081526020016040526040518085600019166000191681526020018460ff1660ff1681526020018360001916600019168152602001826000191660001916815260200194505050505060206040516020810390808403906000865af1158015612225573d6000803e3d6000fd5b5050506020604051035193505b50505092915050565b60008073ffffffffffffffffffffffffffffffffffffffff16600160009054906101000a900473ffffffffffffffffffffffffffffffffffffffff1673ffffffffffffffffffffffffffffffffffffffff16141580156122ea5750600073ffffffffffffffffffffffffffffffffffffffff16600260009054906101000a900473ffffffffffffffffffffffffffffffffffffffff1673ffffffffffffffffffffffffffffffffffffffff1614155b15156122f557600080fd5b600260009054906101000a900473ffffffffffffffffffffffffffffffffffffffff1673ffffffffffffffffffffffffffffffffffffffff16636352211e83600190046040518263ffffffff167c010000000000000000000000000000000000000000000000000000000002815260040180828152602001915050602060405180830381600087803b15801561238a57600080fd5b505af115801561239e573d6000803e3d6000fd5b505050506040513d60208110156123b457600080fd5b81019080805190602001909291905050509050919050565b600060606000806040805190810160405280601c81526020017f19457468657265756d205369676e6564204d6573736167653a0a33320000000081525092508651602060ff160191506030600a8381151561242357fe5b04017f01000000000000000000000000000000000000000000000000000000000000000283600285510381518110151561245957fe5b9060200101907effffffffffffffffffffffffffffffffffffffffffffffffffffffffffffff1916908160001a9053506030600a8381151561249757fe5b06017f0100000000000000000000000000000000000000000000000000000000000000028360018551038151811015156124cd57fe5b9060200101907effffffffffffffffffffffffffffffffffffffffffffffffffffffffffffff1916908160001a9053508288886040518084805190602001908083835b6020831015156125355780518252602082019150602081019050602083039250612510565b6001836020036101000a038019825116818451168082178552505050505050905001836000191660001916815260200182805190602001908083835b6020831015156125965780518252602082019150602081019050602083039250612571565b6001836020036101000a0380198251168184511680821785525050505050509050019350505050604051809103902090506125d18187612143565b73ffffffffffffffffffffffffffffffffffffffff168573ffffffffffffffffffffffffffffffffffffffff16149350505050949350505050565b6000809054906101000a900473ffffffffffffffffffffffffffffffffffffffff1681565b6060600073ffffffffffffffffffffffffffffffffffffffff16600160009054906101000a900473ffffffffffffffffffffffffffffffffffffffff1673ffffffffffffffffffffffffffffffffffffffff16141580156126e15750600073ffffffffffffffffffffffffffffffffffffffff16600260009054906101000a900473ffffffffffffffffffffffffffffffffffffffff1673ffffffffffffffffffffffffffffffffffffffff1614155b15156126ec57600080fd5b600260009054906101000a900473ffffffffffffffffffffffffffffffffffffffff1673ffffffffffffffffffffffffffffffffffffffff1663108f96df83600190046040518263ffffffff167c010000000000000000000000000000000000000000000000000000000002815260040180828152602001915050600060405180830381600087803b15801561278157600080fd5b505af1158015612795573d6000803e3d6000fd5b505050506040513d6000823e3d601f19601f8201168201806040525060208110156127bf57600080fd5b8101908080516401000000008111156127d757600080fd5b828101905060208101848111156127ed57600080fd5b815185600182028301116401000000008211171561280a57600080fd5b50509291905050509050919050565b600080600073ffffffffffffffffffffffffffffffffffffffff16600160009054906101000a900473ffffffffffffffffffffffffffffffffffffffff1673ffffffffffffffffffffffffffffffffffffffff16141580156128ca5750600073ffffffffffffffffffffffffffffffffffffffff16600260009054906101000a900473ffffffffffffffffffffffffffffffffffffffff1673ffffffffffffffffffffffffffffffffffffffff1614155b15156128d557600080fd5b600160009054906101000a900473ffffffffffffffffffffffffffffffffffffffff1673ffffffffffffffffffffffffffffffffffffffff166360d6c7cf7f4d6574616469756d4964656e746974794d616e61676572000000000000000000336040518363ffffffff167c01000000000000000000000000000000000000000000000000000000000281526004018083600019166000191681526020018273ffffffffffffffffffffffffffffffffffffffff1673ffffffffffffffffffffffffffffffffffffffff16815260200192505050602060405180830381600087803b1580156129c257600080fd5b505af11580156129d6573d6000803e3d6000fd5b505050506040513d60208110156129ec57600080fd5b81019080805190602001909291905050501515612a0857600080fd5b82600060559050808251141515612a1e57600080fd5b612a2785612ff8565b92508273ffffffffffffffffffffffffffffffffffffffff16612a498961223b565b73ffffffffffffffffffffffffffffffffffffffff16141515612a6b57600080fd5b612a76878785611452565b1515612a8157600080fd5b600260009054906101000a900473ffffffffffffffffffffffffffffffffffffffff1673ffffffffffffffffffffffffffffffffffffffff16634f558e7988600190046040518263ffffffff167c010000000000000000000000000000000000000000000000000000000002815260040180828152602001915050602060405180830381600087803b158015612b1657600080fd5b505af1158015612b2a573d6000803e3d6000fd5b505050506040513d6020811015612b4057600080fd5b8101908080519060200190929190505050151515612b5d57600080fd5b600260009054906101000a900473ffffffffffffffffffffffffffffffffffffffff1673ffffffffffffffffffffffffffffffffffffffff166342966c6889600190046040518263ffffffff167c010000000000000000000000000000000000000000000000000000000002815260040180828152602001915050602060405180830381600087803b158015612bf257600080fd5b505af1158015612c06573d6000803e3d6000fd5b505050506040513d6020811015612c1c57600080fd5b81019080805190602001909291905050501515612c3857600080fd5b600260009054906101000a900473ffffffffffffffffffffffffffffffffffffffff1673ffffffffffffffffffffffffffffffffffffffff1663d3fc9864848960019004886040518463ffffffff167c0100000000000000000000000000000000000000000000000000000000028152600401808473ffffffffffffffffffffffffffffffffffffffff1673ffffffffffffffffffffffffffffffffffffffff16815260200183815260200180602001828103825283818151815260200191508051906020019080838360005b83811015612d20578082015181840152602081019050612d05565b50505050905090810190601f168015612d4d5780820380516001836020036101000a031916815260200191505b50945050505050602060405180830381600087803b158015612d6e57600080fd5b505af1158015612d82573d6000803e3d6000fd5b505050506040513d6020811015612d9857600080fd5b81019080805190602001909291905050501515612db457600080fd5b866000191688600019168473ffffffffffffffffffffffffffffffffffffffff167fde4d89fa4d58496bf0ceb285c9696695ffef28d55d9c47936ef981f124aa2c8c60405160405180910390a460019350505050949350505050565b6060600073ffffffffffffffffffffffffffffffffffffffff16600160009054906101000a900473ffffffffffffffffffffffffffffffffffffffff1673ffffffffffffffffffffffffffffffffffffffff1614158015612ec05750600073ffffffffffffffffffffffffffffffffffffffff16600260009054906101000a900473ffffffffffffffffffffffffffffffffffffffff1673ffffffffffffffffffffffffffffffffffffffff1614155b1515612ecb57600080fd5b600260009054906101000a900473ffffffffffffffffffffffffffffffffffffffff1673ffffffffffffffffffffffffffffffffffffffff1663c87b56dd83600190046040518263ffffffff167c010000000000000000000000000000000000000000000000000000000002815260040180828152602001915050600060405180830381600087803b158015612f6057600080fd5b505af1158015612f74573d6000803e3d6000fd5b505050506040513d6000823e3d601f19601f820116820180604052506020811015612f9e57600080fd5b810190808051640100000000811115612fb657600080fd5b82810190506020810184811115612fcc57600080fd5b8151856001820283011164010000000082111715612fe957600080fd5b50509291905050509050919050565b6000806000806016925082855111151561301157600080fd5b600190505b60158110156130ec576008600182030260ff7f010000000000000000000000000000000000000000000000000000000000000002868381518110151561305857fe5b9060200101517f010000000000000000000000000000000000000000000000000000000000000090047f010000000000000000000000000000000000000000000000000000000000000002167effffffffffffffffffffffffffffffffffffffffffffffffffffffffffffff19166bffffffffffffffffffffffff19169060020a9004821791508080600101915050613016565b816c0100000000000000000000000090049350505050919050565b600260009054906101000a900473ffffffffffffffffffffffffffffffffffffffff1681565b7f4d6574616469756d4964656e746974794d616e6167657200000000000000000081565b7f4d6574614944000000000000000000000000000000000000000000000000000081565b6000809054906101000a900473ffffffffffffffffffffffffffffffffffffffff1673ffffffffffffffffffffffffffffffffffffffff163373ffffffffffffffffffffffffffffffffffffffff161415156131d057600080fd5b600073ffffffffffffffffffffffffffffffffffffffff168173ffffffffffffffffffffffffffffffffffffffff161415151561320c57600080fd5b8073ffffffffffffffffffffffffffffffffffffffff166000809054906101000a900473ffffffffffffffffffffffffffffffffffffffff1673ffffffffffffffffffffffffffffffffffffffff167f8be0079c531659141344cd1fd0a4f28419497f9722a3daafe3b4186f6b6457e060405160405180910390a3806000806101000a81548173ffffffffffffffffffffffffffffffffffffffff021916908373ffffffffffffffffffffffffffffffffffffffff160217905550505600a165627a7a7230582021bd2323f79103db41c5be9034d79afa4a5ecdcdda91b2a6b9f8e6fe372c087c0029",
  "source": "pragma solidity ^0.4.21;\n\nimport \"./openzeppelin-solidity/contracts/ownership/Ownable.sol\";\nimport \"./MetadiumNameService.sol\";\n// contract MasterContract{\n\n// }\ncontract ERC20Basic {\n  function totalSupply() public view returns (uint256);\n  function balanceOf(address who) public view returns (uint256);\n  function transfer(address to, uint256 value) public returns (bool);\n  event Transfer(address indexed from, address indexed to, uint256 value);\n}\n\ncontract MetaID {\n    function mint(address _to, uint256 _tokenId, string _uri) public returns (bool);\n    function setTokenURI(uint256 _tokenId, string _uri) public;\n    function balanceOf(address _owner) public view returns (uint256 _balance);\n    function burn(uint256 _tokenId) public returns (bool);\n    function exists(uint256 _tokenId) public view returns (bool _exists);\n    function ownerOf(uint256 _tokenId) public view returns (address _owner);\n    function tokenURI(uint256 _tokenId) public view returns (string);\n    function tokenOfOwnerByIndex(address _owner, uint256 _index) public view returns (uint256 _tokenId);\n    function tokenURIAsBytes(uint256 _tokenId) public view returns (bytes);\n}\n\ncontract MetadiumIdentityManager is Ownable {\n\n    MetadiumNameService public MNS; // address of Metadium Name Service\n    MetaID public MID; // address of MetaID\n\n    bytes32 public constant nameMetaIdentityManager = \"MetadiumIdentityManager\";\n    bytes32 public constant nameMetaID = \"MetaID\";\n    \n    event CreateMetaID(address indexed owner, bytes32 indexed metaID);\n    event UpdateMetaID(address indexed owner, bytes32 indexed oldMetaID, bytes32 indexed newMetaID);\n    event RestoreMetaID(address indexed owner, bytes32 indexed oldMetaID, bytes32 indexed newMetaID);\n    event DeleteMetaID(address indexed owner, bytes32 indexed metaID);\n\n    modifier permissioned() {\n        require(MNS.getPermission(nameMetaIdentityManager, msg.sender));\n        _;\n    }\n\n    modifier linked() {\n        require(MNS != address(0) && MID != address(0));\n        _;\n    }\n\n    modifier fixedLengthMetaPackage(bytes _metaPackage){\n        // Version 0x01 -> metaPackage.length == 85 bytes\n        uint256 version01Length = 85;\n        require(_metaPackage.length == version01Length);\n        _;\n    }\n    \n    /**\n    * @dev Function to create New Meta ID. signature = user_privatekey_sign(_metaID)\n    * @param _metaID metaID of the user\n    * @param _sig ECDSA signature\n    * @param _metaPackage = Version(1 byte) . userSenderAddress(20 bytes) . AttestationMask(32 bytes) . Status(32 bytes) \n    * @return A boolean that indicates if the operation was successful.\n    */\n    function createMetaID(bytes32 _metaID, bytes _sig, bytes _metaPackage) linked permissioned fixedLengthMetaPackage(_metaPackage) public returns (bool){\n        //permission checked by modifier permissioned\n\n        //get address from metaPackage\n        address _senderFromMetaPackage = getAddressFromMetaPackage(_metaPackage);\n        \n        //verify the signature using ecverify & sender address\n        require(ecverify(_metaID, _sig, _senderFromMetaPackage));\n\n        //check whether same meta ID exists if yes, revert\n        require(!MID.exists(uint256(_metaID)));\n\n        //if not, mint erc721 token to sender address \n        require(MID.mint(_senderFromMetaPackage, uint256(_metaID), string(_metaPackage)));\n\n        CreateMetaID(_senderFromMetaPackage, _metaID);\n\n        return true;\n\n    }\n\n    /**\n    * @dev Function to delete Meta ID. signature = user_privatekey_sign(_metaID . _timestamp)\n    * @param _metaID metaID of the user\n    * @param _sig ECDSA signature\n    * @return A boolean that indicates if the operation was successful.\n    */\n    function deleteMetaID(bytes32 _metaID, bytes _timestamp, bytes _sig) linked permissioned public returns (bool){\n        //permission check from modifier permissioned\n\n        //get address from metaPackage\n        address _senderFromMetaID = ownerOf(_metaID);\n        \n        //verify the signature using ecverify & sender address\n        require(ecverifyWithTimestamp(_metaID, _timestamp, _sig, _senderFromMetaID));\n\n        //check whether the metaID belongs to the sender. this also checks existence\n        //require(MID.ownerOf(uint256(_metaID)) == _senderFromMetaID); // double checked\n\n        //burn metaID\n        require(MID.burn(uint256(_metaID)));\n\n        DeleteMetaID(_senderFromMetaID, _metaID);\n        \n        return true;\n    }\n\n    /**\n    * @dev Function to update old MetaID to New MetaID. signature = user_privatekey_sign(_newMetaID)\n    * @param _oldMetaID metaID of the user\n    * @param _newMetaID metaID of the user\n    * @param _sig ECDSA signature\n    * @param _metaPackage = Version(1 byte) . userSenderAddress(20 bytes) . AttestationMask(32 bytes) . Status(32 bytes) \n    * @return A boolean that indicates if the operation was successful.\n    */\n    function updateMetaID(bytes32 _oldMetaID, bytes32 _newMetaID, bytes _sig, bytes _metaPackage) linked permissioned fixedLengthMetaPackage(_metaPackage) public returns (bool){\n        //permission check from modifier permissionedOnly(msg.sender)\n\n        //get address from metaPackage\n        address _senderFromMetaPackage = getAddressFromMetaPackage(_metaPackage);\n\n        //check the owner has this metaID\n        require(ownerOf(_oldMetaID) == _senderFromMetaPackage);\n\n        //verify the signature using ecverify & sender address\n        require(ecverify(_newMetaID, _sig, _senderFromMetaPackage));\n\n        //check whether same old Meta ID exists\n        //require(metaIDContract.exists(uint256(_oldMetaID))); // double checked\n\n        //check whether same new Meta ID exists\n        require(!MID.exists(uint256(_newMetaID)));\n      \n        //burn old erc721 token from sender address\n        require(MID.burn(uint256(_oldMetaID)));\n\n        //mint new erc721 token to sender address \n        require(MID.mint(_senderFromMetaPackage, uint256(_newMetaID), string(_metaPackage)));\n\n        //approve transfer and burn and mint to permissioned address(e.g. proxy)\n        UpdateMetaID(_senderFromMetaPackage, _oldMetaID, _newMetaID);\n\n        return true;\n\n    }\n\n    /**\n    * @dev Function to update old MetaID to New MetaID. signature = user_privatekey_sign(_newMetaID)\n    * @param _oldMetaID metaID of the user\n    * @param _newMetaID metaID of the user\n    * @param _oldAddress old address of the user\n    * @param _sig ECDSA signature\n    * @param _metaPackage = Version(1 byte) . userSenderAddress(20 bytes) . AttestationMask(32 bytes) . Status(32 bytes) \n    * @return A boolean that indicates if the operation was successful.\n    */\n    function restoreMetaID(bytes32 _oldMetaID, bytes32 _newMetaID, address _oldAddress, bytes _sig, bytes _metaPackage) linked permissioned fixedLengthMetaPackage(_metaPackage) public returns (bool){\n        //permission check from modifier permissionedOnly(msg.sender)\n\n        //get NEW address from metaPackage\n        address _senderFromMetaPackage = getAddressFromMetaPackage(_metaPackage);\n\n        //check the old address owner has old metaID\n        require(ownerOf(_oldMetaID) == _oldAddress);\n\n        //verify the signature using ecverify & new sender address\n        require(ecverify(_newMetaID, _sig, _senderFromMetaPackage));\n\n        //check whether same old Meta ID exists\n        //require(metaIDContract.exists(uint256(_oldMetaID))); // double checked\n\n        //check whether same new Meta ID exists\n        require(!MID.exists(uint256(_newMetaID)));\n      \n        //burn old erc721 token from sender address\n        require(MID.burn(uint256(_oldMetaID)));\n\n        //mint new erc721 token to sender address \n        require(MID.mint(_senderFromMetaPackage, uint256(_newMetaID), string(_metaPackage)));\n\n        //approve transfer and burn and mint to permissioned address(e.g. proxy)\n        RestoreMetaID(_senderFromMetaPackage, _oldMetaID, _newMetaID);\n\n        return true;\n\n    }\n\n    function ownerOf(bytes32 _tokenId) linked public view returns (address _owner){\n        return MID.ownerOf(uint256(_tokenId));\n    }\n\n    function tokenURI(bytes32 _tokenId) linked public view returns (string){\n        return MID.tokenURI(uint256(_tokenId));\n    }\n\n    /**\n    * @dev Returns an URI as bytes for a given token ID\n    * @dev Throws if the token ID does not exist. May return an empty string.\n    * @param _tokenId uint256 ID of the token to query\n    */\n    function tokenURIAsBytes(bytes32 _tokenId) linked public view returns (bytes) {\n        return MID.tokenURIAsBytes(uint256(_tokenId));\n    }\n\n    function balanceOf(address _owner) linked public view returns (uint256 _balance){\n        return MID.balanceOf(_owner);\n    }\n\n    function tokenOfOwnerByIndex(address _owner, uint256 _index) linked public view returns (bytes32 _tokenId){\n        return bytes32(MID.tokenOfOwnerByIndex(_owner, _index));\n    }\n\n    function ecrecovery(bytes32 hash, bytes sig) public constant returns (address) {\n        bytes32 r;\n        bytes32 s;\n        uint8 v;\n    \n        if (sig.length != 65) {\n        return 0;\n        }\n\n        assembly {\n            r := mload(add(sig, 32))\n            s := mload(add(sig, 64))\n            v := and(mload(add(sig, 65)), 255)\n        }\n\n        // https://github.com/ethereum/go-ethereum/issues/2053\n        if (v < 27) {\n            v += 27;\n        }\n\n        if (v != 27 && v != 28) {\n            return 0;\n        }\n\n        /* prefix might be needed for geth only\n        * https://github.com/ethereum/go-ethereum/issues/3731\n        */\n        // bytes memory prefix = \"\\x19Ethereum Signed Message:\\n32\";\n        // hash = sha3(prefix, hash);\n\n        return ecrecover(hash, v, r, s);\n    }\n\n    function ecverify(bytes32 message, bytes sig, address signer) public constant returns (bool) {\n        //message = keccak256(message);\n        bytes memory prefix = \"\\x19Ethereum Signed Message:\\n32\";\n        message = keccak256(prefix, message);\n        return signer == ecrecovery(message, sig);\n    }\n\n    function ecverifyWithTimestamp(bytes32 message, bytes timestamp, bytes sig, address signer) public constant returns (bool) {\n        \n        bytes memory prefix = \"\\x19Ethereum Signed Message:\\n32\";\n        uint256 lens = message.length + timestamp.length;\n\n        //change the prefix 32 to message+timestamp length\n        prefix[prefix.length-2] = byte(lens / 10 + 48);\n        prefix[prefix.length-1] = byte(lens % 10 + 48);\n\n        bytes32 hashedMessage = keccak256(prefix, message, timestamp);\n        return signer == ecrecovery(hashedMessage, sig);\n\n    }\n\n    function getAddressFromMetaPackage(bytes b) public pure returns (address) {\n        uint minLength = 22;\n        require(b.length > minLength);\n\n        bytes20 out;\n        // b[0] = version\n        for (uint i = 1; i < 21; i++) {\n            out |= bytes20(b[i] & 0xFF) >> ((i-1) * 8);    \n        }\n        return address(out);\n    }\n\n    function setMetadiumNameServiceAddress(address _addr) onlyOwner {\n        MNS = MetadiumNameService(_addr);\n    }\n    \n    function setMetaIDAddress(address _addr) onlyOwner {\n        MID = MetaID(MNS.getContractAddress(nameMetaID));\n    }\n}",
  "sourcePath": "/Users/coinplug/BangGijin/MetadiumBlockchain/contracts/MetadiumIdentityManager.sol",
  "compiler": {
    "name": "solc",
    "version": "0.4.24+commit.e67f0147.Emscripten.clang"
  },
  "schemaVersion": "2.0.1",
  "updatedAt": "2018-07-16T07:36:08.503Z"
}