{
  "contractName": "MetadiumIdentityManager",
  "abi": [
    {
      "constant": true,
      "inputs": [],
      "name": "MNS",
      "outputs": [
        {
          "name": "",
          "type": "address"
        }
      ],
      "payable": false,
      "stateMutability": "view",
      "type": "function"
    },
    {
      "constant": true,
      "inputs": [],
      "name": "owner",
      "outputs": [
        {
          "name": "",
          "type": "address"
        }
      ],
      "payable": false,
      "stateMutability": "view",
      "type": "function"
    },
    {
      "constant": true,
      "inputs": [],
      "name": "nameMetaIdentityManager",
      "outputs": [
        {
          "name": "",
          "type": "bytes32"
        }
      ],
      "payable": false,
      "stateMutability": "view",
      "type": "function"
    },
    {
      "constant": true,
      "inputs": [],
      "name": "nameMetaID",
      "outputs": [
        {
          "name": "",
          "type": "bytes32"
        }
      ],
      "payable": false,
      "stateMutability": "view",
      "type": "function"
    },
    {
      "constant": false,
      "inputs": [
        {
          "name": "newOwner",
          "type": "address"
        }
      ],
      "name": "transferOwnership",
      "outputs": [],
      "payable": false,
      "stateMutability": "nonpayable",
      "type": "function"
    },
    {
      "anonymous": false,
      "inputs": [
        {
          "indexed": true,
          "name": "owner",
          "type": "address"
        },
        {
          "indexed": true,
          "name": "metaID",
          "type": "bytes32"
        }
      ],
      "name": "CreateMetaID",
      "type": "event"
    },
    {
      "anonymous": false,
      "inputs": [
        {
          "indexed": true,
          "name": "owner",
          "type": "address"
        },
        {
          "indexed": true,
          "name": "oldMetaID",
          "type": "bytes32"
        },
        {
          "indexed": true,
          "name": "newMetaID",
          "type": "bytes32"
        }
      ],
      "name": "UpdateMetaID",
      "type": "event"
    },
    {
      "anonymous": false,
      "inputs": [
        {
          "indexed": true,
          "name": "owner",
          "type": "address"
        },
        {
          "indexed": true,
          "name": "oldMetaID",
          "type": "bytes32"
        },
        {
          "indexed": true,
          "name": "newMetaID",
          "type": "bytes32"
        }
      ],
      "name": "RestoreMetaID",
      "type": "event"
    },
    {
      "anonymous": false,
      "inputs": [
        {
          "indexed": true,
          "name": "owner",
          "type": "address"
        },
        {
          "indexed": true,
          "name": "metaID",
          "type": "bytes32"
        }
      ],
      "name": "DeleteMetaID",
      "type": "event"
    },
    {
      "anonymous": false,
      "inputs": [
        {
          "indexed": true,
          "name": "previousOwner",
          "type": "address"
        },
        {
          "indexed": true,
          "name": "newOwner",
          "type": "address"
        }
      ],
      "name": "OwnershipTransferred",
      "type": "event"
    },
    {
      "constant": false,
      "inputs": [
        {
          "name": "_addr",
          "type": "address"
        }
      ],
      "name": "setMetadiumNameServiceAddress",
      "outputs": [],
      "payable": false,
      "stateMutability": "nonpayable",
      "type": "function"
    },
    {
      "constant": false,
      "inputs": [
        {
          "name": "_metaID",
          "type": "bytes32"
        },
        {
          "name": "_sig",
          "type": "bytes"
        },
        {
          "name": "_metaPackage",
          "type": "bytes"
        }
      ],
      "name": "createMetaID",
      "outputs": [
        {
          "name": "",
          "type": "bool"
        }
      ],
      "payable": false,
      "stateMutability": "nonpayable",
      "type": "function"
    },
    {
      "constant": false,
      "inputs": [
        {
          "name": "_metaID",
          "type": "bytes32"
        },
        {
          "name": "_timestamp",
          "type": "bytes"
        },
        {
          "name": "_sig",
          "type": "bytes"
        }
      ],
      "name": "deleteMetaID",
      "outputs": [
        {
          "name": "",
          "type": "bool"
        }
      ],
      "payable": false,
      "stateMutability": "nonpayable",
      "type": "function"
    },
    {
      "constant": false,
      "inputs": [
        {
          "name": "_oldMetaID",
          "type": "bytes32"
        },
        {
          "name": "_newMetaID",
          "type": "bytes32"
        },
        {
          "name": "_sig",
          "type": "bytes"
        },
        {
          "name": "_metaPackage",
          "type": "bytes"
        }
      ],
      "name": "updateMetaID",
      "outputs": [
        {
          "name": "",
          "type": "bool"
        }
      ],
      "payable": false,
      "stateMutability": "nonpayable",
      "type": "function"
    },
    {
      "constant": false,
      "inputs": [
        {
          "name": "_oldMetaID",
          "type": "bytes32"
        },
        {
          "name": "_newMetaID",
          "type": "bytes32"
        },
        {
          "name": "_oldAddress",
          "type": "address"
        },
        {
          "name": "_sig",
          "type": "bytes"
        },
        {
          "name": "_metaPackage",
          "type": "bytes"
        }
      ],
      "name": "restoreMetaID",
      "outputs": [
        {
          "name": "",
          "type": "bool"
        }
      ],
      "payable": false,
      "stateMutability": "nonpayable",
      "type": "function"
    },
    {
      "constant": true,
      "inputs": [
        {
          "name": "_tokenId",
          "type": "bytes32"
        }
      ],
      "name": "ownerOf",
      "outputs": [
        {
          "name": "_owner",
          "type": "address"
        }
      ],
      "payable": false,
      "stateMutability": "view",
      "type": "function"
    },
    {
      "constant": true,
      "inputs": [
        {
          "name": "_tokenId",
          "type": "bytes32"
        }
      ],
      "name": "tokenURI",
      "outputs": [
        {
          "name": "",
          "type": "string"
        }
      ],
      "payable": false,
      "stateMutability": "view",
      "type": "function"
    },
    {
      "constant": true,
      "inputs": [
        {
          "name": "_tokenId",
          "type": "bytes32"
        }
      ],
      "name": "tokenURIAsBytes",
      "outputs": [
        {
          "name": "",
          "type": "bytes"
        }
      ],
      "payable": false,
      "stateMutability": "view",
      "type": "function"
    },
    {
      "constant": true,
      "inputs": [
        {
          "name": "_owner",
          "type": "address"
        }
      ],
      "name": "balanceOf",
      "outputs": [
        {
          "name": "_balance",
          "type": "uint256"
        }
      ],
      "payable": false,
      "stateMutability": "view",
      "type": "function"
    },
    {
      "constant": true,
      "inputs": [
        {
          "name": "_owner",
          "type": "address"
        },
        {
          "name": "_index",
          "type": "uint256"
        }
      ],
      "name": "tokenOfOwnerByIndex",
      "outputs": [
        {
          "name": "_tokenId",
          "type": "bytes32"
        }
      ],
      "payable": false,
      "stateMutability": "view",
      "type": "function"
    },
    {
      "constant": true,
      "inputs": [
        {
          "name": "hash",
          "type": "bytes32"
        },
        {
          "name": "sig",
          "type": "bytes"
        }
      ],
      "name": "ecrecovery",
      "outputs": [
        {
          "name": "",
          "type": "address"
        }
      ],
      "payable": false,
      "stateMutability": "view",
      "type": "function"
    },
    {
      "constant": true,
      "inputs": [
        {
          "name": "message",
          "type": "bytes32"
        },
        {
          "name": "sig",
          "type": "bytes"
        },
        {
          "name": "signer",
          "type": "address"
        }
      ],
      "name": "ecverify",
      "outputs": [
        {
          "name": "",
          "type": "bool"
        }
      ],
      "payable": false,
      "stateMutability": "view",
      "type": "function"
    },
    {
      "constant": true,
      "inputs": [
        {
          "name": "message",
          "type": "bytes32"
        },
        {
          "name": "timestamp",
          "type": "bytes"
        },
        {
          "name": "sig",
          "type": "bytes"
        },
        {
          "name": "signer",
          "type": "address"
        }
      ],
      "name": "ecverifyWithTimestamp",
      "outputs": [
        {
          "name": "",
          "type": "bool"
        }
      ],
      "payable": false,
      "stateMutability": "view",
      "type": "function"
    },
    {
      "constant": true,
      "inputs": [
        {
          "name": "b",
          "type": "bytes"
        }
      ],
      "name": "getAddressFromMetaPackage",
      "outputs": [
        {
          "name": "",
          "type": "address"
        }
      ],
      "payable": false,
      "stateMutability": "pure",
      "type": "function"
    }
  ],
  "bytecode": "0x6080604052336000806101000a81548173ffffffffffffffffffffffffffffffffffffffff021916908373ffffffffffffffffffffffffffffffffffffffff160217905550613191806100536000396000f300608060405260043610610107576000357c0100000000000000000000000000000000000000000000000000000000900463ffffffff1680630c1f2e0f1461010c57806326336ce7146101635780632f745c591461026657806339cdde32146102cf578063702fecd11461037e57806370a082311461045357806371171822146104aa57806376845d26146104ed57806377d32e94146105c25780637dd56411146106795780638ab38747146106ea5780638da5cb5b146107df578063a37dd7af14610836578063ade266fe146108e0578063afbb8d51146109c3578063c520a1e014610a6d578063e9e7b9ea14610b16578063eaeaa3d914610b49578063f2fde38b14610b7c575b600080fd5b34801561011857600080fd5b50610121610bbf565b604051808273ffffffffffffffffffffffffffffffffffffffff1673ffffffffffffffffffffffffffffffffffffffff16815260200191505060405180910390f35b34801561016f57600080fd5b5061024c60048036038101908080356000191690602001909291908035600019169060200190929190803573ffffffffffffffffffffffffffffffffffffffff169060200190929190803590602001908201803590602001908080601f0160208091040260200160405190810160405280939291908181526020018383808284378201915050505050509192919290803590602001908201803590602001908080601f0160208091040260200160405190810160405280939291908181526020018383808284378201915050505050509192919290505050610be5565b604051808215151515815260200191505060405180910390f35b34801561027257600080fd5b506102b1600480360381019080803573ffffffffffffffffffffffffffffffffffffffff1690602001909291908035906020019092919050505061119f565b60405180826000191660001916815260200191505060405180910390f35b3480156102db57600080fd5b506103646004803603810190808035600019169060200190929190803590602001908201803590602001908080601f0160208091040260200160405190810160405280939291908181526020018383808284378201915050505050509192919290803573ffffffffffffffffffffffffffffffffffffffff169060200190929190505050611382565b604051808215151515815260200191505060405180910390f35b34801561038a57600080fd5b506104396004803603810190808035600019169060200190929190803590602001908201803590602001908080601f0160208091040260200160405190810160405280939291908181526020018383808284378201915050505050509192919290803590602001908201803590602001908080601f0160208091040260200160405190810160405280939291908181526020018383808284378201915050505050509192919290505050611475565b604051808215151515815260200191505060405180910390f35b34801561045f57600080fd5b50610494600480360381019080803573ffffffffffffffffffffffffffffffffffffffff16906020019092919050505061192d565b6040518082815260200191505060405180910390f35b3480156104b657600080fd5b506104eb600480360381019080803573ffffffffffffffffffffffffffffffffffffffff169060200190929190505050611b04565b005b3480156104f957600080fd5b506105a86004803603810190808035600019169060200190929190803590602001908201803590602001908080601f0160208091040260200160405190810160405280939291908181526020018383808284378201915050505050509192919290803590602001908201803590602001908080601f0160208091040260200160405190810160405280939291908181526020018383808284378201915050505050509192919290505050611ba3565b604051808215151515815260200191505060405180910390f35b3480156105ce57600080fd5b506106376004803603810190808035600019169060200190929190803590602001908201803590602001908080601f0160208091040260200160405190810160405280939291908181526020018383808284378201915050505050509192919290505050611fe8565b604051808273ffffffffffffffffffffffffffffffffffffffff1673ffffffffffffffffffffffffffffffffffffffff16815260200191505060405180910390f35b34801561068557600080fd5b506106a860048036038101908080356000191690602001909291905050506120e0565b604051808273ffffffffffffffffffffffffffffffffffffffff1673ffffffffffffffffffffffffffffffffffffffff16815260200191505060405180910390f35b3480156106f657600080fd5b506107c56004803603810190808035600019169060200190929190803590602001908201803590602001908080601f0160208091040260200160405190810160405280939291908181526020018383808284378201915050505050509192919290803590602001908201803590602001908080601f0160208091040260200160405190810160405280939291908181526020018383808284378201915050505050509192919290803573ffffffffffffffffffffffffffffffffffffffff16906020019092919050505061228f565b604051808215151515815260200191505060405180910390f35b3480156107eb57600080fd5b506107f46124cf565b604051808273ffffffffffffffffffffffffffffffffffffffff1673ffffffffffffffffffffffffffffffffffffffff16815260200191505060405180910390f35b34801561084257600080fd5b5061086560048036038101908080356000191690602001909291905050506124f4565b6040518080602001828103825283818151815260200191508051906020019080838360005b838110156108a557808201518184015260208101905061088a565b50505050905090810190601f1680156108d25780820380516001836020036101000a031916815260200191505b509250505060405180910390f35b3480156108ec57600080fd5b506109a960048036038101908080356000191690602001909291908035600019169060200190929190803590602001908201803590602001908080601f0160208091040260200160405190810160405280939291908181526020018383808284378201915050505050509192919290803590602001908201803590602001908080601f01602080910402602001604051908101604052809392919081815260200183838082843782019150505050505091929192905050506126fa565b604051808215151515815260200191505060405180910390f35b3480156109cf57600080fd5b506109f26004803603810190808035600019169060200190929190505050612cb3565b6040518080602001828103825283818151815260200191508051906020019080838360005b83811015610a32578082015181840152602081019050610a17565b50505050905090810190601f168015610a5f5780820380516001836020036101000a031916815260200191505b509250505060405180910390f35b348015610a7957600080fd5b50610ad4600480360381019080803590602001908201803590602001908080601f0160208091040260200160405190810160405280939291908181526020018383808284378201915050505050509192919290505050612eb9565b604051808273ffffffffffffffffffffffffffffffffffffffff1673ffffffffffffffffffffffffffffffffffffffff16815260200191505060405180910390f35b348015610b2257600080fd5b50610b2b612fc8565b60405180826000191660001916815260200191505060405180910390f35b348015610b5557600080fd5b50610b5e612fec565b60405180826000191660001916815260200191505060405180910390f35b348015610b8857600080fd5b50610bbd600480360381019080803573ffffffffffffffffffffffffffffffffffffffff169060200190929190505050613010565b005b600160009054906101000a900473ffffffffffffffffffffffffffffffffffffffff1681565b6000806000600160009054906101000a900473ffffffffffffffffffffffffffffffffffffffff1673ffffffffffffffffffffffffffffffffffffffff166360d6c7cf7f4d6574616469756d4964656e746974794d616e61676572000000000000000000336040518363ffffffff167c01000000000000000000000000000000000000000000000000000000000281526004018083600019166000191681526020018273ffffffffffffffffffffffffffffffffffffffff1673ffffffffffffffffffffffffffffffffffffffff16815260200192505050602060405180830381600087803b158015610cd757600080fd5b505af1158015610ceb573d6000803e3d6000fd5b505050506040513d6020811015610d0157600080fd5b81019080805190602001909291905050501515610d1d57600080fd5b610d2684612eb9565b91508573ffffffffffffffffffffffffffffffffffffffff16610d48896120e0565b73ffffffffffffffffffffffffffffffffffffffff16141515610d6a57600080fd5b610d75878684611382565b1515610d8057600080fd5b600160009054906101000a900473ffffffffffffffffffffffffffffffffffffffff1673ffffffffffffffffffffffffffffffffffffffff16630d2020dd7f4d657461494400000000000000000000000000000000000000000000000000006040518263ffffffff167c0100000000000000000000000000000000000000000000000000000000028152600401808260001916600019168152602001915050602060405180830381600087803b158015610e3957600080fd5b505af1158015610e4d573d6000803e3d6000fd5b505050506040513d6020811015610e6357600080fd5b810190808051906020019092919050505090508073ffffffffffffffffffffffffffffffffffffffff16634f558e7988600190046040518263ffffffff167c010000000000000000000000000000000000000000000000000000000002815260040180828152602001915050602060405180830381600087803b158015610ee957600080fd5b505af1158015610efd573d6000803e3d6000fd5b505050506040513d6020811015610f1357600080fd5b8101908080519060200190929190505050151515610f3057600080fd5b8073ffffffffffffffffffffffffffffffffffffffff166342966c6889600190046040518263ffffffff167c010000000000000000000000000000000000000000000000000000000002815260040180828152602001915050602060405180830381600087803b158015610fa357600080fd5b505af1158015610fb7573d6000803e3d6000fd5b505050506040513d6020811015610fcd57600080fd5b81019080805190602001909291905050501515610fe957600080fd5b8073ffffffffffffffffffffffffffffffffffffffff1663d3fc9864838960019004876040518463ffffffff167c0100000000000000000000000000000000000000000000000000000000028152600401808473ffffffffffffffffffffffffffffffffffffffff1673ffffffffffffffffffffffffffffffffffffffff16815260200183815260200180602001828103825283818151815260200191508051906020019080838360005b838110156110af578082015181840152602081019050611094565b50505050905090810190601f1680156110dc5780820380516001836020036101000a031916815260200191505b50945050505050602060405180830381600087803b1580156110fd57600080fd5b505af1158015611111573d6000803e3d6000fd5b505050506040513d602081101561112757600080fd5b8101908080519060200190929190505050151561114357600080fd5b866000191688600019168373ffffffffffffffffffffffffffffffffffffffff167ffbec1ceb80a2d30df4afb2beb79b98f019a582e77fa600eb96ce2e1d1f66cf0a60405160405180910390a460019250505095945050505050565b600080600160009054906101000a900473ffffffffffffffffffffffffffffffffffffffff1673ffffffffffffffffffffffffffffffffffffffff16630d2020dd7f4d657461494400000000000000000000000000000000000000000000000000006040518263ffffffff167c0100000000000000000000000000000000000000000000000000000000028152600401808260001916600019168152602001915050602060405180830381600087803b15801561125b57600080fd5b505af115801561126f573d6000803e3d6000fd5b505050506040513d602081101561128557600080fd5b810190808051906020019092919050505090508073ffffffffffffffffffffffffffffffffffffffff16632f745c5985856040518363ffffffff167c0100000000000000000000000000000000000000000000000000000000028152600401808373ffffffffffffffffffffffffffffffffffffffff1673ffffffffffffffffffffffffffffffffffffffff16815260200182815260200192505050602060405180830381600087803b15801561133b57600080fd5b505af115801561134f573d6000803e3d6000fd5b505050506040513d602081101561136557600080fd5b810190808051906020019092919050505060010291505092915050565b600060606040805190810160405280601c81526020017f19457468657265756d205369676e6564204d6573736167653a0a333200000000815250905080856040518083805190602001908083835b6020831015156113f557805182526020820191506020810190506020830392506113d0565b6001836020036101000a0380198251168184511680821785525050505050509050018260001916600019168152602001925050506040518091039020945061143d8585611fe8565b73ffffffffffffffffffffffffffffffffffffffff168373ffffffffffffffffffffffffffffffffffffffff16149150509392505050565b6000806000600160009054906101000a900473ffffffffffffffffffffffffffffffffffffffff1673ffffffffffffffffffffffffffffffffffffffff166360d6c7cf7f4d6574616469756d4964656e746974794d616e61676572000000000000000000336040518363ffffffff167c01000000000000000000000000000000000000000000000000000000000281526004018083600019166000191681526020018273ffffffffffffffffffffffffffffffffffffffff1673ffffffffffffffffffffffffffffffffffffffff16815260200192505050602060405180830381600087803b15801561156757600080fd5b505af115801561157b573d6000803e3d6000fd5b505050506040513d602081101561159157600080fd5b810190808051906020019092919050505015156115ad57600080fd5b6115b684612eb9565b91506115c3868684611382565b15156115ce57600080fd5b600160009054906101000a900473ffffffffffffffffffffffffffffffffffffffff1673ffffffffffffffffffffffffffffffffffffffff16630d2020dd7f4d657461494400000000000000000000000000000000000000000000000000006040518263ffffffff167c0100000000000000000000000000000000000000000000000000000000028152600401808260001916600019168152602001915050602060405180830381600087803b15801561168757600080fd5b505af115801561169b573d6000803e3d6000fd5b505050506040513d60208110156116b157600080fd5b810190808051906020019092919050505090508073ffffffffffffffffffffffffffffffffffffffff16634f558e7987600190046040518263ffffffff167c010000000000000000000000000000000000000000000000000000000002815260040180828152602001915050602060405180830381600087803b15801561173757600080fd5b505af115801561174b573d6000803e3d6000fd5b505050506040513d602081101561176157600080fd5b810190808051906020019092919050505015151561177e57600080fd5b8073ffffffffffffffffffffffffffffffffffffffff1663d3fc9864838860019004876040518463ffffffff167c0100000000000000000000000000000000000000000000000000000000028152600401808473ffffffffffffffffffffffffffffffffffffffff1673ffffffffffffffffffffffffffffffffffffffff16815260200183815260200180602001828103825283818151815260200191508051906020019080838360005b83811015611844578082015181840152602081019050611829565b50505050905090810190601f1680156118715780820380516001836020036101000a031916815260200191505b50945050505050602060405180830381600087803b15801561189257600080fd5b505af11580156118a6573d6000803e3d6000fd5b505050506040513d60208110156118bc57600080fd5b810190808051906020019092919050505015156118d857600080fd5b85600019168273ffffffffffffffffffffffffffffffffffffffff167f0afbed7f307c1b94f44fd781ff78fa8f85831c62848a1c53db8d28f575cf1aa160405160405180910390a36001925050509392505050565b600080600160009054906101000a900473ffffffffffffffffffffffffffffffffffffffff1673ffffffffffffffffffffffffffffffffffffffff16630d2020dd7f4d657461494400000000000000000000000000000000000000000000000000006040518263ffffffff167c0100000000000000000000000000000000000000000000000000000000028152600401808260001916600019168152602001915050602060405180830381600087803b1580156119e957600080fd5b505af11580156119fd573d6000803e3d6000fd5b505050506040513d6020811015611a1357600080fd5b810190808051906020019092919050505090508073ffffffffffffffffffffffffffffffffffffffff166370a08231846040518263ffffffff167c0100000000000000000000000000000000000000000000000000000000028152600401808273ffffffffffffffffffffffffffffffffffffffff1673ffffffffffffffffffffffffffffffffffffffff168152602001915050602060405180830381600087803b158015611ac157600080fd5b505af1158015611ad5573d6000803e3d6000fd5b505050506040513d6020811015611aeb57600080fd5b8101908080519060200190929190505050915050919050565b6000809054906101000a900473ffffffffffffffffffffffffffffffffffffffff1673ffffffffffffffffffffffffffffffffffffffff163373ffffffffffffffffffffffffffffffffffffffff16141515611b5f57600080fd5b80600160006101000a81548173ffffffffffffffffffffffffffffffffffffffff021916908373ffffffffffffffffffffffffffffffffffffffff16021790555050565b6000806000600160009054906101000a900473ffffffffffffffffffffffffffffffffffffffff1673ffffffffffffffffffffffffffffffffffffffff166360d6c7cf7f4d6574616469756d4964656e746974794d616e61676572000000000000000000336040518363ffffffff167c01000000000000000000000000000000000000000000000000000000000281526004018083600019166000191681526020018273ffffffffffffffffffffffffffffffffffffffff1673ffffffffffffffffffffffffffffffffffffffff16815260200192505050602060405180830381600087803b158015611c9557600080fd5b505af1158015611ca9573d6000803e3d6000fd5b505050506040513d6020811015611cbf57600080fd5b81019080805190602001909291905050501515611cdb57600080fd5b611ce4866120e0565b9150611cf28686868561228f565b1515611cfd57600080fd5b600160009054906101000a900473ffffffffffffffffffffffffffffffffffffffff1673ffffffffffffffffffffffffffffffffffffffff16630d2020dd7f4d657461494400000000000000000000000000000000000000000000000000006040518263ffffffff167c0100000000000000000000000000000000000000000000000000000000028152600401808260001916600019168152602001915050602060405180830381600087803b158015611db657600080fd5b505af1158015611dca573d6000803e3d6000fd5b505050506040513d6020811015611de057600080fd5b810190808051906020019092919050505090508173ffffffffffffffffffffffffffffffffffffffff168173ffffffffffffffffffffffffffffffffffffffff16636352211e88600190046040518263ffffffff167c010000000000000000000000000000000000000000000000000000000002815260040180828152602001915050602060405180830381600087803b158015611e7d57600080fd5b505af1158015611e91573d6000803e3d6000fd5b505050506040513d6020811015611ea757600080fd5b810190808051906020019092919050505073ffffffffffffffffffffffffffffffffffffffff16141515611eda57600080fd5b8073ffffffffffffffffffffffffffffffffffffffff166342966c6887600190046040518263ffffffff167c010000000000000000000000000000000000000000000000000000000002815260040180828152602001915050602060405180830381600087803b158015611f4d57600080fd5b505af1158015611f61573d6000803e3d6000fd5b505050506040513d6020811015611f7757600080fd5b81019080805190602001909291905050501515611f9357600080fd5b85600019168273ffffffffffffffffffffffffffffffffffffffff167f4e8bb03e2af31dac5f75505a69e10ce88e9d1239cc1859e1e79a7d360fbf061b60405160405180910390a36001925050509392505050565b6000806000806041855114151561200257600093506120d7565b602085015192506040850151915060ff6041860151169050601b8160ff16101561202d57601b810190505b601b8160ff16141580156120455750601c8160ff1614155b1561205357600093506120d7565b600186828585604051600081526020016040526040518085600019166000191681526020018460ff1660ff1681526020018360001916600019168152602001826000191660001916815260200194505050505060206040516020810390808403906000865af11580156120ca573d6000803e3d6000fd5b5050506020604051035193505b50505092915050565b600080600160009054906101000a900473ffffffffffffffffffffffffffffffffffffffff1673ffffffffffffffffffffffffffffffffffffffff16630d2020dd7f4d657461494400000000000000000000000000000000000000000000000000006040518263ffffffff167c0100000000000000000000000000000000000000000000000000000000028152600401808260001916600019168152602001915050602060405180830381600087803b15801561219c57600080fd5b505af11580156121b0573d6000803e3d6000fd5b505050506040513d60208110156121c657600080fd5b810190808051906020019092919050505090508073ffffffffffffffffffffffffffffffffffffffff16636352211e84600190046040518263ffffffff167c010000000000000000000000000000000000000000000000000000000002815260040180828152602001915050602060405180830381600087803b15801561224c57600080fd5b505af1158015612260573d6000803e3d6000fd5b505050506040513d602081101561227657600080fd5b8101908080519060200190929190505050915050919050565b600060606000806040805190810160405280601c81526020017f19457468657265756d205369676e6564204d6573736167653a0a33320000000081525092508651602060ff160191506030600a838115156122e657fe5b04017f01000000000000000000000000000000000000000000000000000000000000000283600285510381518110151561231c57fe5b9060200101907effffffffffffffffffffffffffffffffffffffffffffffffffffffffffffff1916908160001a9053506030600a8381151561235a57fe5b06017f01000000000000000000000000000000000000000000000000000000000000000283600185510381518110151561239057fe5b9060200101907effffffffffffffffffffffffffffffffffffffffffffffffffffffffffffff1916908160001a9053508288886040518084805190602001908083835b6020831015156123f857805182526020820191506020810190506020830392506123d3565b6001836020036101000a038019825116818451168082178552505050505050905001836000191660001916815260200182805190602001908083835b6020831015156124595780518252602082019150602081019050602083039250612434565b6001836020036101000a0380198251168184511680821785525050505050509050019350505050604051809103902090506124948187611fe8565b73ffffffffffffffffffffffffffffffffffffffff168573ffffffffffffffffffffffffffffffffffffffff16149350505050949350505050565b6000809054906101000a900473ffffffffffffffffffffffffffffffffffffffff1681565b60606000600160009054906101000a900473ffffffffffffffffffffffffffffffffffffffff1673ffffffffffffffffffffffffffffffffffffffff16630d2020dd7f4d657461494400000000000000000000000000000000000000000000000000006040518263ffffffff167c0100000000000000000000000000000000000000000000000000000000028152600401808260001916600019168152602001915050602060405180830381600087803b1580156125b157600080fd5b505af11580156125c5573d6000803e3d6000fd5b505050506040513d60208110156125db57600080fd5b810190808051906020019092919050505090508073ffffffffffffffffffffffffffffffffffffffff1663108f96df84600190046040518263ffffffff167c010000000000000000000000000000000000000000000000000000000002815260040180828152602001915050600060405180830381600087803b15801561266157600080fd5b505af1158015612675573d6000803e3d6000fd5b505050506040513d6000823e3d601f19601f82011682018060405250602081101561269f57600080fd5b8101908080516401000000008111156126b757600080fd5b828101905060208101848111156126cd57600080fd5b81518560018202830111640100000000821117156126ea57600080fd5b5050929190505050915050919050565b6000806000600160009054906101000a900473ffffffffffffffffffffffffffffffffffffffff1673ffffffffffffffffffffffffffffffffffffffff166360d6c7cf7f4d6574616469756d4964656e746974794d616e61676572000000000000000000336040518363ffffffff167c01000000000000000000000000000000000000000000000000000000000281526004018083600019166000191681526020018273ffffffffffffffffffffffffffffffffffffffff1673ffffffffffffffffffffffffffffffffffffffff16815260200192505050602060405180830381600087803b1580156127ec57600080fd5b505af1158015612800573d6000803e3d6000fd5b505050506040513d602081101561281657600080fd5b8101908080519060200190929190505050151561283257600080fd5b61283b84612eb9565b91508173ffffffffffffffffffffffffffffffffffffffff1661285d886120e0565b73ffffffffffffffffffffffffffffffffffffffff1614151561287f57600080fd5b61288a868684611382565b151561289557600080fd5b600160009054906101000a900473ffffffffffffffffffffffffffffffffffffffff1673ffffffffffffffffffffffffffffffffffffffff16630d2020dd7f4d657461494400000000000000000000000000000000000000000000000000006040518263ffffffff167c0100000000000000000000000000000000000000000000000000000000028152600401808260001916600019168152602001915050602060405180830381600087803b15801561294e57600080fd5b505af1158015612962573d6000803e3d6000fd5b505050506040513d602081101561297857600080fd5b810190808051906020019092919050505090508073ffffffffffffffffffffffffffffffffffffffff16634f558e7987600190046040518263ffffffff167c010000000000000000000000000000000000000000000000000000000002815260040180828152602001915050602060405180830381600087803b1580156129fe57600080fd5b505af1158015612a12573d6000803e3d6000fd5b505050506040513d6020811015612a2857600080fd5b8101908080519060200190929190505050151515612a4557600080fd5b8073ffffffffffffffffffffffffffffffffffffffff166342966c6888600190046040518263ffffffff167c010000000000000000000000000000000000000000000000000000000002815260040180828152602001915050602060405180830381600087803b158015612ab857600080fd5b505af1158015612acc573d6000803e3d6000fd5b505050506040513d6020811015612ae257600080fd5b81019080805190602001909291905050501515612afe57600080fd5b8073ffffffffffffffffffffffffffffffffffffffff1663d3fc9864838860019004876040518463ffffffff167c0100000000000000000000000000000000000000000000000000000000028152600401808473ffffffffffffffffffffffffffffffffffffffff1673ffffffffffffffffffffffffffffffffffffffff16815260200183815260200180602001828103825283818151815260200191508051906020019080838360005b83811015612bc4578082015181840152602081019050612ba9565b50505050905090810190601f168015612bf15780820380516001836020036101000a031916815260200191505b50945050505050602060405180830381600087803b158015612c1257600080fd5b505af1158015612c26573d6000803e3d6000fd5b505050506040513d6020811015612c3c57600080fd5b81019080805190602001909291905050501515612c5857600080fd5b856000191687600019168373ffffffffffffffffffffffffffffffffffffffff167fde4d89fa4d58496bf0ceb285c9696695ffef28d55d9c47936ef981f124aa2c8c60405160405180910390a4600192505050949350505050565b60606000600160009054906101000a900473ffffffffffffffffffffffffffffffffffffffff1673ffffffffffffffffffffffffffffffffffffffff16630d2020dd7f4d657461494400000000000000000000000000000000000000000000000000006040518263ffffffff167c0100000000000000000000000000000000000000000000000000000000028152600401808260001916600019168152602001915050602060405180830381600087803b158015612d7057600080fd5b505af1158015612d84573d6000803e3d6000fd5b505050506040513d6020811015612d9a57600080fd5b810190808051906020019092919050505090508073ffffffffffffffffffffffffffffffffffffffff1663c87b56dd84600190046040518263ffffffff167c010000000000000000000000000000000000000000000000000000000002815260040180828152602001915050600060405180830381600087803b158015612e2057600080fd5b505af1158015612e34573d6000803e3d6000fd5b505050506040513d6000823e3d601f19601f820116820180604052506020811015612e5e57600080fd5b810190808051640100000000811115612e7657600080fd5b82810190506020810184811115612e8c57600080fd5b8151856001820283011164010000000082111715612ea957600080fd5b5050929190505050915050919050565b60008060008060169250828551111515612ed257600080fd5b600190505b6015811015612fad576008600182030260ff7f0100000000000000000000000000000000000000000000000000000000000000028683815181101515612f1957fe5b9060200101517f010000000000000000000000000000000000000000000000000000000000000090047f010000000000000000000000000000000000000000000000000000000000000002167effffffffffffffffffffffffffffffffffffffffffffffffffffffffffffff19166bffffffffffffffffffffffff19169060020a9004821791508080600101915050612ed7565b816c0100000000000000000000000090049350505050919050565b7f4d6574616469756d4964656e746974794d616e6167657200000000000000000081565b7f4d6574614944000000000000000000000000000000000000000000000000000081565b6000809054906101000a900473ffffffffffffffffffffffffffffffffffffffff1673ffffffffffffffffffffffffffffffffffffffff163373ffffffffffffffffffffffffffffffffffffffff1614151561306b57600080fd5b600073ffffffffffffffffffffffffffffffffffffffff168173ffffffffffffffffffffffffffffffffffffffff16141515156130a757600080fd5b8073ffffffffffffffffffffffffffffffffffffffff166000809054906101000a900473ffffffffffffffffffffffffffffffffffffffff1673ffffffffffffffffffffffffffffffffffffffff167f8be0079c531659141344cd1fd0a4f28419497f9722a3daafe3b4186f6b6457e060405160405180910390a3806000806101000a81548173ffffffffffffffffffffffffffffffffffffffff021916908373ffffffffffffffffffffffffffffffffffffffff160217905550505600a165627a7a723058206ebbae38012820d63343fdf653c0236db05d98c06b2d0324477cdaae71343e140029",
  "source": "pragma solidity ^0.4.21;\n\nimport \"./openzeppelin-solidity/contracts/ownership/Ownable.sol\";\nimport \"./MetadiumNameService.sol\";\n// contract MasterContract{\n\n// }\ncontract ERC20Basic {\n  function totalSupply() public view returns (uint256);\n  function balanceOf(address who) public view returns (uint256);\n  function transfer(address to, uint256 value) public returns (bool);\n  event Transfer(address indexed from, address indexed to, uint256 value);\n}\n\ncontract MetaID {\n    function mint(address _to, uint256 _tokenId, string _uri) public returns (bool);\n    function setTokenURI(uint256 _tokenId, string _uri) public;\n    function balanceOf(address _owner) public view returns (uint256 _balance);\n    function burn(uint256 _tokenId) public returns (bool);\n    function exists(uint256 _tokenId) public view returns (bool _exists);\n    function ownerOf(uint256 _tokenId) public view returns (address _owner);\n    function tokenURI(uint256 _tokenId) public view returns (string);\n    function tokenOfOwnerByIndex(address _owner, uint256 _index) public view returns (uint256 _tokenId);\n    function tokenURIAsBytes(uint256 _tokenId) public view returns (bytes);\n}\n\ncontract MetadiumIdentityManager is Ownable {\n\n    MetadiumNameService public MNS;\n    bytes32 public constant nameMetaIdentityManager = \"MetadiumIdentityManager\";\n    bytes32 public constant nameMetaID = \"MetaID\";\n    \n    event CreateMetaID(address indexed owner, bytes32 indexed metaID);\n    event UpdateMetaID(address indexed owner, bytes32 indexed oldMetaID, bytes32 indexed newMetaID);\n    event RestoreMetaID(address indexed owner, bytes32 indexed oldMetaID, bytes32 indexed newMetaID);\n    event DeleteMetaID(address indexed owner, bytes32 indexed metaID);\n    \n    function setMetadiumNameServiceAddress(address _addr) onlyOwner {\n        MNS = MetadiumNameService(_addr);\n    }\n\n    modifier permissioned() {\n        require(MNS.getPermission(nameMetaIdentityManager, msg.sender));\n        _;\n    }\n\n    /**\n    * @dev Function to create New Meta ID. signature = user_privatekey_sign(_metaID)\n    * @param _metaID metaID of the user\n    * @param _sig ECDSA signature\n    * @param _metaPackage = Version(1 byte) . userSenderAddress(20 bytes) . AttestationMask(32 bytes) . Status(32 bytes) \n    * @return A boolean that indicates if the operation was successful.\n    */\n    function createMetaID(bytes32 _metaID, bytes _sig, bytes _metaPackage) permissioned public returns (bool){\n        //permission checked by modifier permissioned\n\n        //get address from metaPackage\n        address _senderFromMetaPackage = getAddressFromMetaPackage(_metaPackage);\n        \n        //verify the signature using ecverify & sender address\n        require(ecverify(_metaID, _sig, _senderFromMetaPackage));\n\n        //get metaID address from Metadium Name Service\n        MetaID metaIDContract = MetaID(MNS.getContractAddress(nameMetaID));\n\n        //check whether same meta ID exists if yes, revert\n        require(!metaIDContract.exists(uint256(_metaID)));\n\n        //if not, mint erc721 token to sender address \n        require(metaIDContract.mint(_senderFromMetaPackage, uint256(_metaID), string(_metaPackage)));\n\n        CreateMetaID(_senderFromMetaPackage, _metaID);\n\n        return true;\n\n    }\n\n    /**\n    * @dev Function to delete Meta ID. signature = user_privatekey_sign(_metaID . _timestamp)\n    * @param _metaID metaID of the user\n    * @param _sig ECDSA signature\n    * @return A boolean that indicates if the operation was successful.\n    */\n    function deleteMetaID(bytes32 _metaID, bytes _timestamp, bytes _sig) permissioned public returns (bool){\n        //permission check from modifier permissioned\n\n        //get address from metaPackage\n        address _senderFromMetaID = ownerOf(_metaID);\n        \n        //verify the signature using ecverify & sender address\n        require(ecverifyWithTimestamp(_metaID, _timestamp, _sig, _senderFromMetaID));\n        \n        //get metaID address from Metadium Name Service\n        MetaID metaIDContract = MetaID(MNS.getContractAddress(nameMetaID));\n\n        //check whether the metaID belongs to the sender. this also checks existence\n        require(metaIDContract.ownerOf(uint256(_metaID)) == _senderFromMetaID);\n\n        //burn metaID\n        require(metaIDContract.burn(uint256(_metaID)));\n\n        DeleteMetaID(_senderFromMetaID, _metaID);\n        \n        return true;\n    }\n\n    /**\n    * @dev Function to update old MetaID to New MetaID. signature = user_privatekey_sign(_newMetaID)\n    * @param _oldMetaID metaID of the user\n    * @param _newMetaID metaID of the user\n    * @param _sig ECDSA signature\n    * @param _metaPackage = Version(1 byte) . userSenderAddress(20 bytes) . AttestationMask(32 bytes) . Status(32 bytes) \n    * @return A boolean that indicates if the operation was successful.\n    */\n    function updateMetaID(bytes32 _oldMetaID, bytes32 _newMetaID, bytes _sig, bytes _metaPackage) permissioned public returns (bool){\n        //permission check from modifier permissionedOnly(msg.sender)\n\n        //get address from metaPackage\n        address _senderFromMetaPackage = getAddressFromMetaPackage(_metaPackage);\n\n        //check the owner has this metaID\n        require(ownerOf(_oldMetaID) == _senderFromMetaPackage);\n\n        //verify the signature using ecverify & sender address\n        require(ecverify(_newMetaID, _sig, _senderFromMetaPackage));\n\n        //get metaID address from Metadium Name Service\n        MetaID metaIDContract = MetaID(MNS.getContractAddress(nameMetaID));\n\n        //check whether same old Meta ID exists\n        //require(metaIDContract.exists(uint256(_oldMetaID))); // double checked\n\n        //check whether same new Meta ID exists\n        require(!metaIDContract.exists(uint256(_newMetaID)));\n      \n        //burn old erc721 token from sender address\n        require(metaIDContract.burn(uint256(_oldMetaID)));\n\n        //mint new erc721 token to sender address \n        require(metaIDContract.mint(_senderFromMetaPackage, uint256(_newMetaID), string(_metaPackage)));\n\n        //approve transfer and burn and mint to permissioned address(e.g. proxy)\n        UpdateMetaID(_senderFromMetaPackage, _oldMetaID, _newMetaID);\n\n        return true;\n\n    }\n\n    /**\n    * @dev Function to update old MetaID to New MetaID. signature = user_privatekey_sign(_newMetaID)\n    * @param _oldMetaID metaID of the user\n    * @param _newMetaID metaID of the user\n    * @param _oldAddress old address of the user\n    * @param _sig ECDSA signature\n    * @param _metaPackage = Version(1 byte) . userSenderAddress(20 bytes) . AttestationMask(32 bytes) . Status(32 bytes) \n    * @return A boolean that indicates if the operation was successful.\n    */\n    function restoreMetaID(bytes32 _oldMetaID, bytes32 _newMetaID, address _oldAddress, bytes _sig, bytes _metaPackage) permissioned public returns (bool){\n        //permission check from modifier permissionedOnly(msg.sender)\n\n        //get NEW address from metaPackage\n        address _senderFromMetaPackage = getAddressFromMetaPackage(_metaPackage);\n\n        //check the old address owner has old metaID\n        require(ownerOf(_oldMetaID) == _oldAddress);\n\n        //verify the signature using ecverify & new sender address\n        require(ecverify(_newMetaID, _sig, _senderFromMetaPackage));\n\n        //get metaID address from Metadium Name Service\n        MetaID metaIDContract = MetaID(MNS.getContractAddress(nameMetaID));\n\n        //check whether same old Meta ID exists\n        //require(metaIDContract.exists(uint256(_oldMetaID))); // double checked\n\n        //check whether same new Meta ID exists\n        require(!metaIDContract.exists(uint256(_newMetaID)));\n      \n        //burn old erc721 token from sender address\n        require(metaIDContract.burn(uint256(_oldMetaID)));\n\n        //mint new erc721 token to sender address \n        require(metaIDContract.mint(_senderFromMetaPackage, uint256(_newMetaID), string(_metaPackage)));\n\n        //approve transfer and burn and mint to permissioned address(e.g. proxy)\n        RestoreMetaID(_senderFromMetaPackage, _oldMetaID, _newMetaID);\n\n        return true;\n\n    }\n\n    function ownerOf(bytes32 _tokenId) public view returns (address _owner){\n        MetaID metaIDContract = MetaID(MNS.getContractAddress(nameMetaID));\n        return metaIDContract.ownerOf(uint256(_tokenId));\n    }\n\n    function tokenURI(bytes32 _tokenId) public view returns (string){\n        MetaID metaIDContract = MetaID(MNS.getContractAddress(nameMetaID));\n        return metaIDContract.tokenURI(uint256(_tokenId));\n    }\n\n    /**\n    * @dev Returns an URI as bytes for a given token ID\n    * @dev Throws if the token ID does not exist. May return an empty string.\n    * @param _tokenId uint256 ID of the token to query\n    */\n    function tokenURIAsBytes(bytes32 _tokenId) public view returns (bytes) {\n        MetaID metaIDContract = MetaID(MNS.getContractAddress(nameMetaID));\n        return metaIDContract.tokenURIAsBytes(uint256(_tokenId));\n    }\n\n    function balanceOf(address _owner) public view returns (uint256 _balance){\n        MetaID metaIDContract = MetaID(MNS.getContractAddress(nameMetaID));\n        return metaIDContract.balanceOf(_owner);\n    }\n\n    function tokenOfOwnerByIndex(address _owner, uint256 _index) public view returns (bytes32 _tokenId){\n        MetaID metaIDContract = MetaID(MNS.getContractAddress(nameMetaID));\n        return bytes32(metaIDContract.tokenOfOwnerByIndex(_owner, _index));\n    }\n\n    function ecrecovery(bytes32 hash, bytes sig) public constant returns (address) {\n        bytes32 r;\n        bytes32 s;\n        uint8 v;\n    \n        if (sig.length != 65) {\n        return 0;\n        }\n\n        assembly {\n            r := mload(add(sig, 32))\n            s := mload(add(sig, 64))\n            v := and(mload(add(sig, 65)), 255)\n        }\n\n        // https://github.com/ethereum/go-ethereum/issues/2053\n        if (v < 27) {\n            v += 27;\n        }\n\n        if (v != 27 && v != 28) {\n            return 0;\n        }\n\n        /* prefix might be needed for geth only\n        * https://github.com/ethereum/go-ethereum/issues/3731\n        */\n        // bytes memory prefix = \"\\x19Ethereum Signed Message:\\n32\";\n        // hash = sha3(prefix, hash);\n\n        return ecrecover(hash, v, r, s);\n    }\n\n    function ecverify(bytes32 message, bytes sig, address signer) public constant returns (bool) {\n        //message = keccak256(message);\n        bytes memory prefix = \"\\x19Ethereum Signed Message:\\n32\";\n        message = keccak256(prefix, message);\n        return signer == ecrecovery(message, sig);\n    }\n\n    function ecverifyWithTimestamp(bytes32 message, bytes timestamp, bytes sig, address signer) public constant returns (bool) {\n        \n        bytes memory prefix = \"\\x19Ethereum Signed Message:\\n32\";\n        uint256 lens = message.length + timestamp.length;\n\n        //change the prefix 32 to message+timestamp length\n        prefix[prefix.length-2] = byte(lens / 10 + 48);\n        prefix[prefix.length-1] = byte(lens % 10 + 48);\n\n        bytes32 hashedMessage = keccak256(prefix, message, timestamp);\n        return signer == ecrecovery(hashedMessage, sig);\n\n    }\n\n    function getAddressFromMetaPackage(bytes b) public pure returns (address) {\n        uint minLength = 22;\n        require(b.length > minLength);\n\n        bytes20 out;\n        // b[0] = version\n        for (uint i = 1; i < 21; i++) {\n            out |= bytes20(b[i] & 0xFF) >> ((i-1) * 8);    \n        }\n        return address(out);\n    }\n}",
  "sourcePath": "/Users/coinplug/BangGijin/MetadiumBlockchain/contracts/MetadiumIdentityManager.sol",
  "compiler": {
    "name": "solc",
    "version": "0.4.24+commit.e67f0147.Emscripten.clang"
  },
  "schemaVersion": "2.0.1",
  "updatedAt": "2018-07-09T08:27:11.508Z"
}